:020000041000EA
:1000000000B5324B212058609868022188439860DF
:10001000D860186158612E4B002199600221596106
:100020000121F02299502B49196001219960352056
:1000300000F044F80222904214D00621196600F024
:1000400034F8196E01211966002018661A6600F04E
:100050002CF8196E196E196E052000F02FF8012189
:100060000842F9D1002199601B49196000215960AB
:100070001A491B48016001219960EB211966A021F2
:10008000196600F012F800219960164914480160C1
:100090000121996001BC002800D000471248134993
:1000A000086003C880F30888084703B5996A0420EC
:1000B0000142FBD001200142F8D103BD02B5186610
:1000C0001866FFF7F2FF186E186E02BD00000240BE
:1000D000000000180000070000035F00212200005C
:1000E000F4000018222000A00001001008ED00E03C
:1000F00000000000000000000000000074B24E7A12
:1001000000200420F7010010C3010010C5010010F9
:10011000C1010010C1010010C1010010C101001097
:10012000C1010010C1010010C1010010C701001081
:10013000C1010010C1010010C9010010CB01001065
:10014000CD010010CD010010CD010010CD01001037
:10015000CD010010CD010010CD010010CD01001027
:10016000CD010010CD010010CD010010CD01001017
:10017000CD010010CD010010CD010010CD01001007
:10018000CD010010CD010010CD010010CD010010F7
:10019000CD010010CD010010CD010010CD010010E7
:1001A000CD010010CD010010CD010010CD010010D7
:1001B000CD010010CD010010CD010010CD010010C7
:1001C00000BE00BE00BE00BE00BE00BE00F04BF888
:1001D000103800BEF2EB8871305000105050001003
:1001E0003402001090A31AE700202149086006C8D5
:1001F00081F3088810471F48006800282FD10DA4FC
:100200000ECC002902D000F012F8F9E71A491B4A77
:10021000002000E001C19142FCD1194988471949E9
:1002200088471949884700BEFDE701C901C29A42C3
:10023000FBD3704750500010C0000020A0080020E1
:100240003058001000000420000004203058001036
:1002500000100420001004200000000070470B482C
:1002600001F0E8FD0047EFF30580C0B270470000E1
:1002700008ED00E0000000D0A008002028160020B3
:1002800089180010E502001075190010575600007B
:1002900006005250ABB36053EC4D001006005250B4
:1002A000861C0302FC4D0010060052505422A29DF1
:1002B000084E001005005250DE65F46830580010FA
:1002C000F8B5C046044B10B5002B03D003490448D1
:1002D00000E000BF10BDC04600000000B8150020BF
:1002E000484D001010B501F0FDFF044C200001F056
:1002F0006DFFFA20800000F0DBFEF7E7484D0010AC
:1003000070B5EFF3108C72B60D4D2B68002BFCD03E
:10031000BFF35F8F0724CB08C618C05C01230C40D5
:10032000A3401C000440034207D118433070BFF3C0
:100330005F8F2C608CF3108870BD100001F01CFBE7
:100340002C0100D0F8B54746CE46884680B5EFF37D
:10035000108C72B6214D2C68002CFCD0BFF35F8F3F
:100360009A422CD8D4080727055D061901241740A6
:10037000BC402C421FD007210127894609E0D40840
:10038000055D06194C4639001440A1400C00294275
:1003900011D001329342F2D201204042BFF35F8F6D
:1003A00000220E4B1A608CF3108800280FDBC0BCB3
:1003B000B946B046F8BD254310003570EEE7BFF3EF
:1003C0005F8F00232B608CF310880120404243464E
:1003D000002BECD0089801F0CFFAC0462C0100D0D9
:1003E000024B18688007C00F7047C04600C0064027
:1003F0000021044B044ABFF35F8F02C39342FAD13A
:100400007047C046000100D0800100D0044A107837
:10041000431CDBB2172B00D9102313707047C04662
:100420007803002010B5064B064C82B00100009303
:1004300018221F232000FFF785FF02B010BDC04621
:10044000584D00103811002001238340002904D0AA
:10045000034A1360034A13607047034A1360FBE7C3
:1004600080E200E000E100E080E100E00123834061
:10047000014A13607047C04600E200E0084B1030AC
:100480009B688000C358002B07D0064A00209B1AA7
:100490002F229A424041C0B270470020FCE7C0467C
:1004A00000ED00E07C030020024B10309B688000D0
:1004B000C058704700ED00E070B50D00EFF31086F6
:1004C00072B60F4A1368002BFCD0BFF35F8F0D4B41
:1004D00010309B6884001B590B4A934203D09D4205
:1004E00001D001F061FA074B9B681D51BFF35F8F8C
:1004F000BFF35F8F0022024B1A6086F3108870BD35
:10050000240100D000ED00E0CD010010F0B54E4612
:100510004546DE465746E0B583B00600009190465A
:10052000EFF3108B72B6664A1368002BFCD0BFF352
:100530005F8F0025634B5D579A46002D00DA7AE005
:1005400052466B00604C5F19BF000193E319994656
:100550009B79103613705D4BB6009B6899590B1B45
:100560002F2B33D95A4B994200D07DE0019B0237A3
:100570009C46584B6544AD006353574BE719043B09
:10058000DB1B564A1B055B0D651913436B80544BEF
:100590000121AB80FF23AB714346EB71009BAB6045
:1005A0004B460B431900494B9B689951BFF35F8F32
:1005B000BFF35F8F0022424B1A608BF3108803B0A9
:1005C000F0BCBB46B246A946A046F0BD01200A00D9
:1005D0008243D37943454AD9BC464746884607E01B
:1005E0005800C01880002018C179B94229D90200EA
:1005F0000623D356002BF3DA9A464146131DB8461C
:10060000BD279C463F02484663460438C01A000591
:10061000324B400D1843019B908095715A195346F7
:100620009200A418A37143462E4AE371009B2260F6
:10063000A780A360B7E701F0B7F9002553465D57DF
:100640007EE79A464146131DB84667469C46908809
:10065000043740050015E7196044C01BE02700057A
:10066000400D3F020743CEE701F09EF97EE71300FD
:100670001D491B1B5B415943090D164BBD1CE35320
:10068000154B6519043B5B1B1B05144D5B0D2B4380
:10069000AC464D466B8065460437131FE719DB1BDC
:1006A0001B055B0D1D434B4699714146D97100995D
:1006B0009D80996049460B4B0143136073E7C04628
:1006C000240100D0221600207C03002000ED00E071
:1006D000CD01001000A1FFFFAC03002000E0FFFFF0
:1006E00000BDFFFF01488047AAAA0000F0B5DE4622
:1006F00057464E464546E0B50C0083B0EFF3108AEE
:1007000072B6604A1368002BFCD0BFF35F8F1022D3
:10071000914681444A465C4B96009B689D595B4BD1
:1007200098469D4205D0A54216D0594FEB1B2F2B62
:1007300014D9554B9B689D51BFF35F8FBFF35F8FFB
:100740000022504B1A608AF3108803B0F0BCBB46FD
:10075000B246A946A046F0BD1D00EAE7012383404A
:100760009B465A464B4B1B681A4000925A464A4BCE
:100770001A60BFF35F8FFFF776FD031E01901DD156
:100780002A0001339A439068844208D171E04B00FB
:100790005B189B00FB189868A04245D01A00062100
:1007A00051560029F3DA84426AD0009B002B34D0E2
:1007B0005A463A4B1A60374B1A60BAE7814530D136
:1007C0002A0001239A4390688442E8D106215156B9
:1007D0001300002940DB4A00501880003C18804676
:1007E000A0689860E079D87106202056987100289A
:1007F0002FDBA488F81A6405241544440019E0246A
:100800000005400D2402204398805318244A9B0081
:100810001078FB1898711170C7E75A461E4B1A6082
:1008200087E701F0C1F8CBE7062159560029D2DA53
:100830000199002910D1FF3191711A49918018490D
:100840000A789A71184ADB1B5B415A43120D0A70F1
:10085000ABE7BD200002D7E7144A1549D21A083A7F
:100860005002400D01439980124952080A43DA8030
:100870009BE70621515613000029ACDA4546DEE716
:100880001300D5E7240100D000ED00E0CD010010F9
:100890007C03002000E100E080E100E080E200E075
:1008A0002216002000BDFFFFAAAA0000B603002008
:1008B00000F0FFFF00F8FFFFF8B501250400054335
:1008C000FFF7D1FCEFF3108C72B6214A1368002BAE
:1008D000FCD0BFF35F8F1F4E2100B7681E4A1F4B2D
:1008E000891A49414B431B0D59B28300F858A8425D
:1008F0001CD00623D3568B421CD01223D3568B42D6
:1009000022D01E23D3568B4220D02A23D356032035
:100910008B4210D0124B1A781970A271BFF35F8FFF
:1009200000220B4B1A608CF31088F8BDB2680D489A
:10093000D050EFE7002043001B189B00D218FF2384
:100940009371094B9380E5E70120F4E70220F2E779
:10095000240100D000ED00E07C030020AAAA0000E2
:1009600022160020CD01001000BDFFFF054B064AF6
:100970001360064A136053609360D3601361536140
:10098000936170478080808000E400E004E400E030
:10099000D02300B51B061B680100074883B0181858
:1009A000064B002200930523FFF7CCFC002801DB57
:1009B0001F23181A03B000BD1C160020744D001030
:1009C000024B9C466144890001607047400000343E
:1009D00083680B4810B584466144624412010901E2
:1009E00059189B185C684A680120944201D802D0CB
:1009F0000020C0B210BD1A680B689A42F9D8F7E718
:100A0000FFFFFF0F0A4B1968EFF3108072B60A68F8
:100A1000002AFCD0BFF35F8F1B68BFF35F8F0022FB
:100A20001A6080F3108840BF002000217047C04644
:100A3000EC150020F8B5574645464E46DE46E0B573
:100A400098460CAB1C780DAB1B78070091469A4674
:100A50000568002C5AD1AC7B002C3BD0660029687D
:100A60003619033E89194B78AB73002B00D1EB7319
:100A700000238B704B700B702B4BE218BB6812017C
:100A80009B184A461A6042465A600A9A9A600B9A24
:100A9000DA6000238B704B700B706B7B9B46002BD6
:100AA00027D022006B685946A86898475B465B00D0
:100AB0005B442A68033B002812D058469619B07050
:100AC000D118D35C002B00D073705B460C706B7335
:100AD0005C450FD0F0BCBB46B246A946A046F8BD67
:100AE000D3189C709119925D002A00D05A705B4611
:100AF0000B706C734A464346387D00F015FC051EAA
:100B00000AD10E9B002BE5D01D70E3E76600296833
:100B10003619033E8919AFE75346002BF1D1210066
:100B2000386800F04BFEECE7FFFFFF0FF0B5DE4644
:100B300057464E4645460023E0B58DB00A936A4BB2
:100B40008200D75800239B460B9000F08DFB0200DB
:100B50000B007868EFF3108972B64D4601680029E2
:100B6000FCD0A946BFF35F8F39684E7B8C46002EC0
:100B70002ED0BC685D49A246711809018A445146CD
:100B80000868496804000D00A41A9D41002D5EDD2F
:100B900002000B000B9800F0C7FB002300229A46CE
:100BA000002308920993002398467B68BFF35F8F68
:100BB0005A461A6089F310884346002B12D1002848
:100BC000C3D10DB0F0BCBB46B246A946A046F0BDAD
:100BD000002300229A460023089209930023002054
:100BE0009846E2E70A9B514618023043C0470690F8
:100BF00007917A68EFF3108572B654461368002B9C
:100C0000FCD0A246BFF35F8F0699079A002A3BDB10
:100C1000114302D03B69002B52D13B68D97B00299C
:100C200005D01A68480041185218033A5670DE730E
:100C3000FA68013E935D013393555B463B617B68E7
:100C4000BFF35F8F5A461A6085F310887DE7002D49
:100C500001D1002C9CD10021604600F017FD5346C5
:100C60005C681B680893099453469B6898465346F2
:100C7000DB689A46FB689B19013B1B780A931B02B1
:100C800003433B61002090E73B69002BC5D0089BE4
:100C9000099C5B1A9441089809991A002300A14203
:100CA00019D899421BD0002104910131039151467A
:100CB00001914146380002960091FFF7BBFEBCE768
:100CC00000F0D2FA069A079B12184B41994202D8BB
:100CD000E9D19042E7D901225242D317E3E70899BC
:100CE0009142E0D9F7E7C046D0150020FFFFFF0F83
:100CF000F8B557464E464546DE46E0B53E4D82467F
:100D000089466A68EFF3108872B61368002BFCD02E
:100D1000BFF35F8F2E68B47B002C48D06700336828
:100D20003F19033FDB195A78B273002A00D1F273DE
:100D3000324AA118AA680901521851461160494661
:100D400051602F4991600021D160997059701970DC
:100D5000737B9B46002B41D0220073685946B068D4
:100D600098475B465B005B443268033B00282CD00D
:100D70005846D719B870D118D35C002B00D07B70BF
:100D80005B460C7073735C4529D00026EB681B1919
:100D9000013B19786B68BFF35F8F00221A6088F3FC
:100DA00010880020002E0AD10802204307E06B685B
:100DB000BFF35F8F1C6088F3108801204042F0BCB5
:100DC000BB46B246A946A046F8BDD3189C70D119BF
:100DD000D25D002A00D05A705B460B707473524685
:100DE0004B46287D00F0A0FA061ECED021002868D0
:100DF00000F0E4FCCAE7C046C4030020FFFFFF0F79
:100E0000050A001010B5124C6368002B04D00A21AB
:100E10001048FFF7D5FD10BD23000F4A10212068B0
:100E200000F03AFB032000F013FA032000F0EAFA86
:100E300003200A4900F032FAFFF7E8FA084B9C4613
:100E4000032360442375074B80006060DC60DEE7AD
:100E5000C4030020EC150020D10900102D0B001058
:100E600040000034D015002000487047C403002023
:100E7000F0B557464E464546DE46E0B585B001938F
:100E800010AB1B780600039300239A469846009205
:100E90007268EFF3108B72B61368002BFCD0BFF3AF
:100EA0005F8F3568AC7B002C6AD067002B683F19D8
:100EB000033FDB195A78AA73002A00D1EA73504A1B
:100EC000A118B26809015218009801991060516088
:100ED0000E9991600F99D16042469A705A701A70BB
:100EE0006B7B9946002B00D170E022006B6849466D
:100EF000A86898474B465B004B442A68033B002890
:100F00005BD04846D719B870D118D35C002B00D0FD
:100F10007B704B460C706B734C4558D0F3681B19B3
:100F2000013B18787368BFF35F8F42461A608BF3FA
:100F300010885346002B08D10002204305B0F0BCB6
:100F4000BB46B246A946A046F0BD039B002B54D039
:100F50000E9B00200F99984703000B434DD00400CF
:100F60000D1E16DA0098019902000B00121BAB410E
:100F700099421CD838D000920193039B9A4687E788
:100F80007368BFF35F8F1C608BF3108801204042B1
:100F9000D4E700F069F902000B00A4185D41009449
:100FA0000195A94203D8E8D100998A42E5D90123E5
:100FB0005B42DC1700930194DFE7D3189C70D119D2
:100FC000D25D002A00D05A704B460B706C73307D96
:100FD000009A019B00F0A8F9824600289ED02100CB
:100FE000306800F0EBFB99E700999142C3D90123E7
:100FF0005B42DC1700930194BFE700209EE7C046E8
:10100000FFFFFF0FF0B504000D0006267642F7172C
:10101000C64636196F4100B58F4213D810D000F084
:1010200023F932003B00121A8B41002B14DC002BF9
:1010300037D02900200000F021F980BCB846F0BD6F
:101040008642ECD90026002700F00EF932003B0062
:10105000121A8B41002BEADD30003900FFF748FE01
:101060000028E6DB00239846BC460F4A0F4F7B6AF8
:101070009C4504D8B96AB142DBD29C45D9D11168EC
:10108000EFF3108072B60B68002BFCD0BFF35F8FBC
:101090001368BFF35F8F4146196080F3108820BF4B
:1010A000E5E7002AC5D0D7E7EC1500200040054051
:1010B00070B5060000F0D8F8FA2204000D000023F5
:1010C00030000021920000F06FFF001969418D424D
:1010D00005D802D0FFF796FF70BD8442FAD90120EF
:1010E0004042C117F6E7C046F8B5CE46474680B540
:1010F00005000C00FFF7FCFD031E11DC244A002054
:10110000536AA34203D3926A0130AA4203D3C0BCFC
:10111000B946B046F8BD1B1B5A1E9341D8B2F6E73C
:1011200020BF1C4E7168EFF3108772B60A68002A60
:10113000FCD0BFF35F8FDAB29446FF2230681A40CA
:10114000417B61450AD0016889465100884649467D
:10115000904441440339897800290FD0F1681B0A73
:101160008A18013A1278DBB29A420CD07368BFF346
:101170005F8F00221A6087F31088BFE732699342BD
:10118000F4D13161F2E7614600F018FBEEE7C046AA
:1011900000400540C4030020F0B5D6464F46464601
:1011A000C0B5EFF305823F23134018001038EFF36A
:1011B000108C72B620490A68002AFCD0BFF35F8FFA
:1011C0000122170087401D4C1600A24667631C4C85
:1011D0002578A0462C00C4402640224215D0524615
:1011E000566A184A8400A258964218D34246164BB3
:1011F000BD43E3581570BFF35F8F00220A608CF384
:101200001088002B06D0984704E0BFF35F8F0E6074
:101210008CF31088E0BCBA46B146A846F0BD0B4A34
:101220009B00904643441A681A60BFF35F8F002307
:101230000B608CF31088EDE7280100D000400540DA
:1012400025160020F815002028100020D03F05406A
:1012500010B5034B01001800024AFFF751F810BD0A
:1012600021160020904D0010034B596A0A00986A1D
:10127000596A8A42FAD1704700400540064A536ACB
:101280009942FCD807D1044B02E05A6A914202D13C
:101290009A6A8242F9D370470040054070B5040055
:1012A0000D00EFF3108672B61A4A1368002BFCD0BB
:1012B000BFF35F8F002D1BD02000FFF7F5F8164914
:1012C00081420AD02000FFF7F7F801212000FFF744
:1012D000BBF80123A340114A1360114BA400E55051
:1012E000BFF35F8F00220B4B1A6086F3108870BD2E
:1012F0000121A1400A4BA200D5500A4B20001A78C8
:101300008A4305491A70FFF7F1F900212000FFF721
:101310009BF8E5E7280100D09911001038600540DE
:101320002810002025160020F0B54F46D646464628
:10133000C0B507002E4C616A0D00A66A616AA94219
:10134000FAD18B4208D805D00120E0BCBA46B1469C
:10135000A846F0BDB242F7D9EFF3108A72B625481D
:1013600001680029FCD0BFF35F8F0125BD402249F1
:101370001F4C8846097889462943C9B28C464146A4
:1013800060460870391D890065630A511B49B80021
:101390004350216A0020294219D0616A0800A66AD8
:1013A000616A8142FAD18B4219D801D1B24216D872
:1013B000CC450BD00E4B1F221D625D6301233A40CA
:1013C00093400F4A136043464A461A700120BFF308
:1013D0005F8F0022074B1A608AF31088B5E7002060
:1013E000BFF35F8F0022034B1A608AF31088ACE7CB
:1013F00000400540280100D025160020F8150020E7
:1014000080E200E0EFF3108C72B60A490B68002B03
:10141000FCD0BFF35F8F01238340074A0748136264
:1014200002789A430270BFF35F8F00230B608CF346
:1014300010887047280100D0004005402516002084
:1014400070B506000D00140000291DD0002A12D02E
:1014500073688068984762006B0012195B193168E5
:10146000033A033B002808D08A189570C818CB5C53
:10147000002B0BD10470280070BDCB189C7088180D
:101480008A5C002A05D105702000F5E753700470CE
:10149000F1E75A700570F7E710B583600023CCB20E
:1014A00043730133426004738373C4730068421C46
:1014B000012C05D90133DBB2137003329C42F9D100
:1014C000FF230B405A00D318C01800230338437081
:1014D00010BDC04670B505000C1E07D06300016842
:1014E0001B19033BCB185A78002A01D1200070BD8C
:1014F000500080180338091800204E7848702100E9
:1015000058702800FFF79CFF310004002800FFF707
:10151000E1FF0600002C20D00028E7D03200210097
:101520006B68A86898477200630092191B192968B4
:10153000033A033B002808D08A189470C818CB5C83
:10154000002B00D053700670D0E7CB189E7088181F
:101550008A5C002A00D05A7004703400C6E7C04686
:10156000F8B557464E464546DE464C00E0B5641891
:1015700017000268033C0500105D13190E009C461D
:10158000002852D0430098461B18033BD3185978C3
:101590008A46002919D1002F0CD0EC7B002C50D0AA
:1015A00063001B19D318033B5E70EE734346191892
:1015B0000339531800229A70002362465370F0BC1E
:1015C000BB46B246A946A046F8BD4900514403397E
:1015D00052185178884600215170894659705246F8
:1015E00001002800FFF72CFF43468246002B07D05E
:1015F0005B0029684344033BCB185A78002A2CD15E
:10160000514642462800FFF71BFF0100002F1AD069
:10161000A4462A68EF7B9444002F04D07B00DB199A
:10162000D318033B5E70EE7310E0002FC4D0E97B4B
:10163000002910D04B005B18D318033B5E70EE738B
:10164000BAE7EE73B6E7A4462A6894440029B3D0FB
:101650004B009846AAE7EE73AEE7500080180338B7
:101660000918487883464846487058704146280013
:10167000FFF7E6FE594680462800FFF72BFF41465C
:1016800002002800FFF7DCFE8046B9E7F8B55746B0
:101690004E464546DE46E0B5467B02687500AD190C
:1016A000033D0F00515D531904009C46002953D09F
:1016B0004B0098465B18033BD318587882460028A5
:1016C0001BD1002F0CD0E57B002D51D06B005B1996
:1016D000D318033B5E70E67343465818033813185B
:1016E00000229A7000236246300053706173F0BC90
:1016F000BB46B246A946A046F8BD40005044033858
:10170000121850788046002050708146587052461A
:101710002000FFF795FE43468246002B07D05B0072
:1017200021684344033BCB185A78002A2CD15146F8
:1017300042462000FFF784FE0100002F1AD0AC467D
:101740002268E77B9444002F04D07B00DB19D31878
:10175000033B5E70E67310E0002FC3D0C07B00280F
:1017600010D043001B18D318033B5E70E673B9E733
:10177000E673B5E7AC46226894440028B2D0430033
:101780009846A9E7E673ADE75000801803380918BA
:101790004878834648464870587041462000FFF715
:1017A0004FFE594680462000FFF794FE4146020056
:1017B0002000FFF745FE8046B9E7C04670B505003A
:1017C00000292CD0437B8B422ED04C00006864183B
:1017D000033C0419A278002A21D053009B18033B34
:1017E000C25CC6188A4202D11BE0002A08D053000E
:1017F0009B18033BC3185A788A42F6D162785A7014
:10180000002301222800A3706370FFF7A9FE697B03
:1018100002002800FFF714FE6873012000E000209A
:1018200070BD63783370EBE701221900FFF798FE73
:10183000F2E7C04610B50400FEF7E8FD0100200005
:10184000FFF7BEF8FF232371BFF35F8F10BDC046C3
:1018500010B50400FEF7DAFD01002000FFF7B0F834
:10186000FF23A380BFF35F8F10BDC04610B50400F7
:101870000120FEF7D7FD034BC3189B002360BFF385
:101880005F8F10BD400000342B4B2C4A70B51A609E
:101890002B4A2C4B2C491A6014008B689C43FBD1BB
:1018A0002A4D2B4EB54208D2013E761BB60808CD14
:1018B000984723000134B342F9D100F07BF8254A60
:1018C000204B1A60204A9368DB43DB01DD09002BC3
:1018D000F9D14022204B214E214C9A675A671A6752
:1018E000DA66B44208D2236820000834002B1FD0E7
:1018F000FFF7AEFFB442F6D31A4C1B4EC022B168BC
:10190000200000F0C1FBB460FEF772FDFFF72EF877
:10191000FFF778FA154C164EB44208D2013E361B3A
:10192000B60808CC98472B0001359E42F9D170BD0E
:10193000FFF780FFD5E7C04600E00040BFCDFBFECB
:10194000FE7F3C0000F0004000C000408408002002
:1019500094080020FFFFFF0100F0014084080020F0
:101960007C0800200000002000ED00E0940800202A
:10197000A008002000BEFDE70FB400B5084883B002
:1019800000F024FC049B002B07D005A9180001914E
:1019900000F030FA034800F019FC00BEFDE7C04635
:1019A000B44D0010C44D001010B50148FFF7E4FF1E
:1019B000C84D001010B50C2082B000F0A9F9FEF758
:1019C0000FFD002810D0864B86488649864A18604D
:1019D00059609860D960186159619861D96118623D
:1019E00059625A6202B010BD804CA06700F0E6F95F
:1019F00001227F4B1A60636C012BFCD103227D4BCB
:101A00001A607A4A936B012BFCD1013301217A4A87
:101A10007A480093043300F027F90523784A0093AD
:101A20000121784800F020F9774B5A68FF2A02D844
:101A3000802252005A6080226E4B694C12011A605B
:101A40002169002905D0606900F026FA01300138CB
:101A5000FDD1E0226C4B6D4819680A4002600222F9
:101A60001968514001320A40042102609A6811420B
:101A7000FCD08021664A09011160802252005A6020
:101A8000644B2361644B5968FF2900D85A600322D4
:101A90000121574B1A60604A93681942FCD0E02339
:101AA000106803405D480360126803234A40022126
:101AB0001340594A036093681942FCD08021584B67
:101AC000090119608021574B490051606361564BF1
:101AD0005A68FF2A00D859608022544B12011A60BC
:101AE000E169002905D0606900F0D6F901300138BC
:101AF000FDD1E0234C4A11680B404D490B60802119
:101B00004C4B090119608021364B49005160E3615B
:101B1000494B5A68FF2A00D859608022474B12016E
:101B20001A60216A002905D0606900F0B5F901301A
:101B30000138FDD1E023404A11680B4040490B6059
:101B40008021404B0901196080235B005360802293
:101B5000244BD20223623C4B5968914200D25A6016
:101B600080223A4B12011A60616A002905D060692F
:101B700000F092F901300138FDD1E023324A1168BA
:101B80000B4033490B608021324B090119608023DF
:101B9000DB025360144B63622F4B5A68FF2A02D852
:101BA000802252005A6080222C4B12011A60A169D7
:101BB000002905D0606900F06FF901300138FDD1CE
:101BC000E023254A11680B4025490B608021254BF5
:101BD0000901196080235B005360124BA36101E788
:101BE000A0080020006CDC021BB700000080004051
:101BF0003CB0004030B00040002F685900800240E7
:101C0000008C864700C00240308000403090004089
:101C100030A00040001BB7003C8000403C900040DA
:101C20003CA00040405973075480004054B000402D
:101C30005490004054A000406080004060B00040DC
:101C40006090004060A000406C8000406CB000409C
:101C50006C9000406CA000404880004048B00040BC
:101C60004890004048A00040F8B504000C20170040
:101C70001D000E0000F010F943011B1A9901C91A4A
:101C8000C90009188901380000F006F9069B2904EB
:101C90001B0319432368002B20DB194B194DE31854
:101CA0005A4253418022520194461B03164A634410
:101CB0001360164A13601F00AA689743FBD1C02324
:101CC000221D9B01134321222660A0601A60226816
:101CD000002AFCDA0822E1601A60F8BD3F2322687E
:101CE0001340B342D9D1A3681B051B0D8342D4D145
:101CF000EE22E368D20213408B42CED1EDE7C0461C
:101D00000040FDBF00C0004000E0004000F0004087
:101D10008023024A9B000343D36270470080054042
:101D200010B580241C4BE4051C6000281AD0012348
:101D30001A4C18431A4BDC611A4C44401C6259621D
:101D400098628021144BC90519601748174908602B
:101D5000E021C9041960002A07D18022144B120621
:101D60001A6010BD0E4BD861EBE753019B1A9B0024
:101D70009A18802312015B049A4209D213000D497C
:101D80000B60074B5A608022094BD2051A60E8E7C6
:101D9000094B1A00F3E7C04600B00540D3C007B0B6
:101DA000008005402D3FF84FFCFF01000820014056
:101DB00000A00540B0150020FFFFFF00AA23064A3F
:101DC0001B0113602F230549D360054B196053682D
:101DD000002BFCDA7047C0460040024000B0FA0019
:101DE0000060024010B5002800D110BD00F09CF941
:101DF000FBE7C04610B5094A0300146884B0002C04
:101E000008D0012200910648524203A9A0470120B0
:101E100004B010BD00F0DAF90020F9E7AC1500209D
:101E2000E51D001001480421014B1847F003002074
:101E3000551E0010142310B50100188804331B88A8
:101E4000984710BD162310B50100188802331B886F
:101E5000984710BDF8B54746CE4680B50F1E19D03D
:101E600014239946043304000025012698464B4666
:101E70001888434621681B88984701C4431E98412F
:101E8000013540420640AF42F1D13000C0BCB946F6
:101E9000B046F8BD0126F8E7114A936F9B0813D2AC
:101EA00010665166002905D0FFE7FFE7FFE7516F95
:101EB000106F704704B5002801D00020C04302F025
:101EC00023FF002104BDC046F0B5146E556E576F58
:101ED000166FFFF7E5FF1466556657671667F0BD86
:101EE000000000D0132370B51D78012D15D010DD32
:101EF0001D48FFF7A7FF1D4C01008022200000F0C5
:101F0000C3F8022D2DD01A48FFF794FF194B186023
:101F100070BD194B154CA364F5E7174B134C2360A8
:101F20006360A360E36023616361A361E361236293
:101F30006362A362E36223636363A363E363236473
:101F40006364A364E36423656365A365E365236653
:101F50006366A366E36623676367A367E367A364B7
:101F6000D1E7054BA364CEE753440000D00900201D
:101F70004C330000E81500207D1F001007B56046B7
:101F800001880A0A0230DF2AFAD1C9B2820804D3D2
:101F9000028840880004104300E00068014A505065
:101FA000039007BDD009002051434343C9188C4614
:101FB000110C83B24B4310B4040C614392B280B253
:101FC000504362431C041B0C001910BC59411304FC
:101FD000120CC0185141614470470000132310B522
:101FE00012481C78FFF72EFF0100012C0AD003DDF8
:101FF00080220F4800F048F80E48FFF71BFF0E4BF9
:10200000186010BD0A4C5422200000F03DF80B4B24
:102010006365A365E36523666366A366E36623677A
:102020006367A367E3672362E361E5E75346000064
:10203000D00A00204C330000E81500204120001099
:1020400007B5604601880A0A0230DF2AFAD1C9B210
:10205000820804D3028840880004104300E000682E
:10206000014A5050039007BDD00A002001480421C6
:10207000014B184700040020551E0010014B1B683F
:102080001847000000040020014B5B68184700005F
:1020900000040020F0B5C64600B5437C07000D00E3
:1020A0001600002B38D0002A2EDD00216A1E904633
:1020B0006A5C037C4C1C00200A2A0CD0A64216D075
:1020C00043461B5D21000D3B5A4253416A5CDBB223
:1020D0004C1C0A2AF2D1002BF0D1814217DC0221DC
:1020E00010483B689847A64207D02000E8E78642A0
:1020F00003DD311A3B6828189847AD19013D2B784C
:102100000D3B5A4253413B7480BCB846F0BD091A9E
:102110003B6828189847E2E70368110028009847B1
:10212000F2E7C046384E0010F0B5CE46474680B5BF
:1021300083B06B46DE1CD02330701B061C68204B1E
:10214000804601A91800994602F0E6FD071E20D03E
:102150001C4B1C68002C29D01B4D02E0E468002CAD
:102160000FD02368002BF9D02B68002B01D0A3429D
:10217000F4D1200001223100FFF78CFFE468002C2D
:10218000EFD1002F12D1404603B0C0BCB946B046D3
:10219000F0BD019B64B29C420CD0484602F0CCFDDD
:1021A000084B1C68002C01D00127D5E7484602F0F7
:1021B000A3FDE8E7034B1C68002CCDD1E3E7C04644
:1021C0007C080020A4110020A8110020F0B5DE46F4
:1021D00045464E465746E0B583B0060002F0ECFC9B
:1021E000D0231B061C68304B050001A918009B4634
:1021F00002F092FD804600283DD02C4B1C689A4688
:10220000002C47D00A232A4F994602E0E468002CAC
:1022100017D02368002BF9D03B68002B01D0A342D4
:10222000F4D120002A003100FFF734FF6B464A4604
:1022300020001A7101A90122FFF72CFFE468002C8D
:10224000E7D14346002B25D153461C68002C06D00D
:102250006368002B0BD09847E468002CF8D1280065
:1022600003B0F0BCBB46B246A946A046F0BDE46848
:10227000002CEDD1F3E7019B64B29C420ED058468E
:1022800002F05AFD094B1C689A46002C02D001232B
:102290009846B7E7584602F02FFDD5E7034B1C6878
:1022A0009A46002CAED1DAE77C080020A411002069
:1022B000A81100200A4A1368002B05D10CE01A006F
:1022C000DB680C32002B07D09842F8D1002902D1EC
:1022D000C3681360C16070470029FCD01060FAE742
:1022E000A411002010B500F03DF910BD7047C046A4
:1022F0000022014B1A707047231600204B790020F2
:10230000FF2B0BD18B79002B08D1CB79012B05D179
:10231000082A03D9024B8A7809301A707047C046E0
:10232000231600200120704770B5002913D11449ED
:102330005379107909781B0203430020994200D099
:1023400070BD5378012B08D0022BF9D164220021F3
:102350000020FFF7E5FC0120F2E79478D278050031
:1023600012021443D20502D5620A93401D000548AB
:10237000FFF760FD7F210300214028009847C046F9
:1023800023160020554200000123037000487047C7
:102390003C4E00104B780A781B0213438A7810B524
:1023A00012041A43CB781B0613439622D2009342A1
:1023B00000D010BD0348FFF73DFD002103000800D9
:1023C0009847C0465542000070B5184C82B00600D0
:1023D0000D00200001A902F09FFC002808D1D023A5
:1023E0001B06019A1B689A421CD0200002F0A4FC34
:1023F000002001F0A5FD002807D103256D42200033
:1024000002F07AFC280002B070BD002001F0B0FD9F
:102410000028F2D02A003100002001F0B5FD051E91
:10242000EBD0ECE703256D42ECE7C046F015002049
:10243000F0B5DE464E465746C0B5344B82B08146B5
:102440000D00180001A99B4602F066FC002808D187
:10245000D0231B06019A1B689A4250D0584602F0BE
:102460006BFC002001F06CFD002840D00024002D02
:1024700042DD274B9A4612E04B460020191901F025
:10248000F7FD060000F0EAFD002001F0B5FDFEF7C3
:10249000EBFE534618605960A419AC422CDA0020B8
:1024A00001F000FE2E1B0200B04200DD3200002AC7
:1024B000E2D100F0D3FD002001F09EFD002001F0EC
:1024C0003FFD002818D0002001F0ECFD0028E4D1E9
:1024D000FEF7CAFE002753460E4E1A685B68921933
:1024E0007B41994208D8D8D19042D6D904E0002047
:1024F0000021074B18605960584602F0FDFB02B0FE
:10250000E0BCBB46B246A946F0BDC046F01500206F
:10251000C809002020A1070010B5044B1878FDF76A
:10252000A5FFFA200021800010BDC046241600201F
:1025300010B5024B1878FDF799FF10BD2416002046
:1025400010B5074C0021200002F0E6FB002800D166
:1025500010BD00F083FD200002F0CEFBF8E7C0467E
:10256000F0150020F0B5244B85B01B7801F07CFFFE
:102570002248FFF75FF90120FEF70AFAFF23204CFB
:10258000204920701840FDF797FF20780121FDF7C2
:102590005BFF0520FDF772FF041E0CD00022052012
:1025A0001949FDF7B3FF01211848FFF783FE012405
:1025B000200005B0F0BDFEF757FC0500FEF754FE05
:1025C000FA2206000F000023920092197B419942E3
:1025D0000ED80BD001210291002101910C49280055
:1025E0000091FEF745FC0028E2D0DCE79042F1D9EB
:1025F00001225242D317EDE74C500010F015002095
:102600002416002041250010312500101004002060
:1026100019250010004870470C4F00100048704703
:10262000B84E001010B5040017480378002B20D0D6
:10263000002C06D1154B16484380063BFF3B038018
:1026400010BD052C19D8134BA400E05812490123E2
:10265000013804E001330A800231142B0FD0C25C30
:10266000002AF7D1C022DBB25B0092000848134376
:10267000E5E7112102F090F9DAE70020E0E7CA234C
:1026800003489B00DBE7C046081600200904000051
:102690007C110020A04E00107E110020F0B5982380
:1026A00057464546DE464E46674AE0B5D758802530
:1026B0003C006D0285B02C40883B2F420ED0012299
:1026C0002321624B00205A546149DA7001F0FCF971
:1026D00080222C005F4B92021A655F4BFA0617D4DA
:1026E00080235B011F424BD18023DB011F4200D0BE
:1026F00080E080231B021F4200D089E0BC4200D052
:102700009DE005B0F0BCBB46B246A946A046F0BD70
:102710004D4A926D9046002A2DD04E4A0024934691
:1027200001229146494A0126924642465146B84600
:102730009A461700039104E001347600E4B2202C9D
:1027400017D03742F8D05B469E654B466508A343D9
:102750006D00ED18039B6D019C466544280000F058
:102760000BFB00285FD10134B743E4B27600002FA1
:10277000E5D1474653461C0080235B011F42B3D07E
:102780001C430023304A00211360314A33489360D0
:10279000D360136153619361D36113625362936297
:1027A000D362136353639363D36313645364936477
:1027B000D364136553659365D36513665366936657
:1027C000D366136753679367D367F0229200FFF7CE
:1027D00055FC234B234A00211A600020012201F0FE
:1027E00047F980221B4B12031A658023DB011F422D
:1027F00000D17EE70122042100201C4301F0A6F84D
:102800001022144B1A6580231B021F4200D175E76A
:102810000122052100201C4301F098F880220D4B75
:1028200012011A656AE74B46AA8AA978002000932C
:10283000002301F071F9280000F0DAF993E7210094
:1028400009487940FFF798F800001150AC110020BA
:10285000000010500030115010000100EC11002059
:10286000B415002080011050204F001010B5012138
:102870000520FDF7E9FD10BD10B50022002102483A
:1028800000F0DEF910BDC046CC1100208022024BC2
:102890005202DA647047C04600201150F0B5C646B7
:1028A00000B5060000F07EF90C232E4D0520AB6725
:1028B0002D49FDF701FE402398462C4C4022002173
:1028C0002000FFF7DBFB43460127A38321210023E0
:1028D000274A6770A260136063545F316184414688
:1028E000A18702396354234A23496360E260A162ED
:1028F0000B60E262214A636220009360D36013613F
:1029000053619361D361136253629362D362136321
:1029100053639363D363136453649364D364136501
:1029200053659365D365136653669366D3661367E1
:1029300053679367D367F022002192004030FFF77E
:102940009DFB0F4B0F4A30001A6080239B052F64BC
:10295000EB6490230C4AEA50FFF798FF80BCB8461E
:10296000F0BDC046000011509D260010AC110020A3
:1029700084001050000110508000105000001050D2
:10298000B41500208001105010D001000B785B06B8
:1029900002D14B78052B00D070478A78014B1A6022
:1029A000FAE7C04600001150F0B5CE46474607236F
:1029B00080B548798E780A790340C8787F218007EE
:1029C00031401B02F40913434F00820F9446914695
:1029D0002A4D3A195201AA1896700126664056707F
:1029E000604600269383D6709077CA00012C29D0C8
:1029F00023488446880162448446AC446046826031
:102A00001660002929D01F4AC90090464144416000
:102A10003F223F3393434A46022A00D15B001A49C2
:102A20003F190A687F01D3180B60184BED1953400A
:102A3000EA604A469006184380236A681B060343EF
:102A4000136010E012488446880162448446AC4416
:102A500060468262166000290AD1002364012C19A5
:102A600063600C4BE3600120C0BCB946B046F0BDCA
:102A7000064AC900904641444162C9E7AC110020B2
:102A80008400105004001050B415002000001050B5
:102A900080001050000110500022154B10B59A60B4
:102AA000DA601A615A619A61DA611A625A629A624C
:102AB000DA621A635A639A63DA631A645A649A642C
:102AC000DA641A655A659A65DA651A665A669A660C
:102AD000DA661A675A679A67DA67F032920000215D
:102AE0000448FFF7CBFA044B044A1A6010BDC046F5
:102AF00000001050EC110020B4150020800110508F
:102B000010B57F200C0020404000E409110000199E
:102B10001A00034B4001C01800F092F8012010BDCC
:102B2000AC1100207F23180010B50840CA090B42E1
:102B300003D107497D3B9B1A8B6640008018802299
:102B4000044B40010021C018120100F057F810BDDD
:102B500000201150AC1100207F22130010B50B4053
:102B60000A4200D110BDC9095B005B1804485B0133
:102B7000C018002300220349C37000F03FF8F1E7BA
:102B8000AC110020FFF7FFFF7F21C209034B920029
:102B9000014010B5D2580248FEF7EEFE2404002092
:102BA000344F001080220D4B520410B51A600C4BAC
:102BB0000C491A6010008B689843FBD10A4C9C2288
:102BC00000212000FFF75AFA802200215201074815
:102BD000FFF754FA0923636710BDC04600E00040C8
:102BE00000F0004000C000400000115000001050F4
:102BF00000230374438283828361704710B5836826
:102C0000002901D01C682140002A11D08024E40052
:102C1000114322420CD01A6822420BD1074A0A40C3
:102C20001A60FFE7FFE7FFE7FFE7FFE7FFE78368DB
:102C3000196010BD8078FFF7A7FFC046FFFBFFFFBC
:102C4000F0B5C646002300B58382013303744368A0
:102C500004001F68838B81611E1C934200D9161CDF
:102C60008020B6B2921B93B2E278C00030431500C8
:102C70008446681E854160466D030543012042403D
:102C8000E27062786382002A50D0002B2CD0802220
:102C900052011543344A126C920743D5A28B111C82
:102CA0009A4200D9191C8AB28021C90011439B1A8B
:102CB0009046E2789BB21600701E864176030E4362
:102CC00001214A40E27062786382002A3AD0002BE8
:102CD00002D18023DB011E43A023244A36043A405C
:102CE000DB053543134309E0A023DB011D431E4BE5
:102CF0001B6C80231E4A9B053A4013436268136095
:102D0000A26813685B052BD41A4B2B401360FFE7B6
:102D1000FFE7FFE7FFE7FFE7FFE7A3681D6080BC71
:102D2000B846F0BDA278D209B8D1E2E73200E06837
:102D3000FFF7AAF9A3699B19A36180231B021D4316
:102D4000638AA2E7E0684246A1694030FFF79CF938
:102D5000A3694344A36180231B021E43638AB6E731
:102D6000A078FFF711FFC04600001150FFFFFFDF02
:102D7000FFFFFFAFFFFBFFFFF0B5C64600B5067CC7
:102D80000400002E00D1CDE083681A681D684378E6
:102D9000AD05AD0D002B00D06FE0838AEB189BB220
:102DA0008382A18B62688D4206D2002363821368FE
:102DB000300080BCB846F0BD1268520010D58D427C
:102DC0000ED1A26815686278AD01AD0D002A00D061
:102DD0008CE0EB18A3828D4202D200236382E7E7E6
:102DE000638A002BE4D062681E1C17688B4200D9EE
:102DF0000E1CE17880220D00681E8541B6B2D2001B
:102E000032436D03154301229B1B514062789BB2F4
:102E10006382E170002A5AD0002B3BD080225201FD
:102E20001543454A126C920702D4A278D20936D0D3
:102E3000A28B111C9A4257D88AB28021C900114333
:102E40009B1A9046E2789BB21600701E864176036C
:102E50000E4301214A40E27062786382002A53D017
:102E6000002B02D18023DB011E43A023334A36040A
:102E70003A40DB053543134316E02A008069E168D8
:102E8000FFF702F9A38AA269EB189BB25219A38239
:102E9000A26186E7A023DB011D43274B1B6C802327
:102EA000274A9B053A40134362681360A26813687F
:102EB0005B053ED4234B2B401360FFE7FFE7FFE7A2
:102EC000FFE7FFE7FFE7A36800261D6070E7320019
:102ED000E068A169FFF7D8F8A3699B19A361802373
:102EE0001B021D43638A97E7191CA5E7E1682A00C6
:102EF0004031A069FFF7C8F8A38AA18BEB18A38221
:102F0000A3695B19A36166E7E0684246A1694030A6
:102F1000FFF7BAF8A3694344A36180231B021E4351
:102F2000638A9DE77F238178074A08481940FEF7A6
:102F300023FDA078FFF728FE00001150FFFFFFDF00
:102F4000FFFFFFAFFFFBFFFF24040020544F0010E2
:102F5000024B5878431E9841C0B270470C0F0020B6
:102F6000024B18784007C00F7047C0460C0F002076
:102F7000014B18787047C0461F160020F0B5C646B2
:102F80002D4F05003B7800B5002B03D0012080BCFD
:102F9000B846F0BD532200212848FFF76FF8284CAF
:102FA0002000FEF747FC274B1C60274C20001C3CF0
:102FB000FEF75CFC200001F0A3FC244B244E1C60B7
:102FC000244B9846002B2AD03000FFF7DDF942460B
:102FD000214B002418603378002A25D01E4A9046E1
:102FE0009C420FD301F06AF801343378E4B2A34273
:102FF000F6D22800FFF752FC2800FFF737FC012328
:103000003B70C3E743461A6863001B19DB009B58FB
:10301000984701343378E4B29C42E1D9E9E742466B
:1030200000243378002AD9D101F048F83378002BF6
:10303000DFD043461B68FFDE1F1600200C0F002068
:10304000C40E0020600F002048040020640F002000
:103050001E16002089230010D40B0020F0B5DE4698
:1030600057464E464546E0B591B001F003FA0028B8
:1030700000D144E1C24BC34E0193C34B0DAC02934C
:10308000C24B00969B46009B1D68EA69EFF31081D6
:1030900072B61368002BFCD0BFF35F8F2962280043
:1030A000210001F0A1FAEA692B6ABFF35F8F0021CA
:1030B000116083F31088002800D120E16378082B89
:1030C000E1D8019A9B00D3589F466368002BDAD061
:1030D000A0689847D7E77F222179AB4B0A4055007B
:1030E000C8095B191B18180001273030C578BD438B
:1030F000C570C5780337BD43C570002A00D105E10E
:10310000A34ADB7C002A06D0A24A1278934200D25E
:1031100087E19B1ADBB2002B00D0F0E09E4DA36844
:1031200062792078A847AEE70122974F01213B78CA
:10313000042013433B703323FA5C8A43FA54FA5C4D
:103140008243FA540133FA5C8A43FA54FA5C8243AC
:10315000FA54237800209A4600F064FE6022237916
:103160001A40602A0DD0402A00D1EBE0DB06DB0ECE
:10317000012B00D160E1022B00D11BE1002B00D11B
:10318000EFE020780021FFF7CDFC80212078FFF7C9
:10319000C9FC78E7029B1B78DB0700D473E77F4B01
:1031A000002B00D16FE700E000BF6CE7764A137890
:1031B000DB0700D467E77A4B002B00D163E7107878
:1031C0000007C00F00E000BF5DE7724D704A0027A6
:1031D0002B78002A00D1B0E06C4A16009F4205D33C
:1031E0000137FFB29F4200D94DE7F9D27A0031682A
:1031F000D219D2008A185269002AF1D0207890475B
:1032000001372B78FFB2BB42E8D23CE72378614D0F
:1032100098465F4A0027914646462B78002A00D1FF
:1032200083E0BB425CD8300000F086FF01372B788A
:10323000FFB2BB42F5D2029D532200212800FEF7C7
:103240001DFF1022FF215748FEF718FF28002022FB
:10325000FF211330FEF712FF00F0DAFD524B002B76
:1032600000D110E700E000BF0DE72378494D484A40
:103270009846914600272B78002A4DD0434A46466F
:103280009146BB421DD8300000F056FF01372B7825
:10329000FFB2BB42F5D23C4D532200212800FEF77D
:1032A000EDFE1022FF21E81CFEF7E8FE2800202298
:1032B000FF211330FEF7E2FE00F0AAFD2379AB7088
:1032C000E1E64B461A687B00DB19DB00D3185B682C
:1032D0003000984701372B78FFB29F42D1D9DAE707
:1032E0005B461A687B00DB19DB00D3185B68300093
:1032F000984701372B78FFB2BB4292D29BE711B0BF
:10330000F0BCBB46B246A946A046F0BDA3686279B0
:10331000207800F09BFDB6E6404600F00DFF2B78CC
:10332000002BB8D04B465B68FFDE404600F004FF40
:103330002B78002B00D17EE7F4E7002B00D1A2E62A
:103340005369FFDE1948002800D11AE700F06AFD32
:10335000002150460EAA00E000BF002800D092E6EF
:103360000FE7202A00D19CE0002A00D009E763790A
:10337000092B00D905E70E4A9B00D3589F46C0464B
:10338000884F0010640F00200C0F0020D40B002089
:10339000892300101E1600202D430010000000009D
:1033A000000000000F0F00200000000000000000DF
:1033B000AC4F00107023217A0B4200D0E1E60F33AE
:1033C0000B405B00CD09F8184019C67CB9480028AD
:1033D00006D0B9480078864200D283E0301AC6B2DF
:1033E000002E7BD1002A00D010E1B44A914602267B
:1033F00062799046B243012A00D10BE14246002A8D
:1034000000D0BEE6FB185B193033DB780CAA9B07B3
:10341000DB0F02321380504602230EA900F0A2FCFB
:1034200031E6A74A58001268C318DB00D318002BF6
:1034300000D164E71D6972E6237A0F2B00D9A0E65C
:103440009C4AFB18DB78002A05D09B4A12789342ED
:1034500063D39B1ADBB2002B00D092E69948974DBC
:1034600000F0E0FC00215046EB680EAA98470028C7
:1034700000D008E66022150023791D401A4200D0D2
:103480007FE663790A3B012B00D97AE600F0CAFC9B
:1034900063790A2B00D1EAE050460EA900F04CFCFB
:1034A000F1E5237A0F2B00D96BE6824AFB18DB7813
:1034B000002A06D0804A1278934200D2CCE09B1AB0
:1034C000DBB2002B00D05CE67E487C4D00F0AAFC0D
:1034D00000215046EB680EAA98473EE79146002A25
:1034E00085D04EE676480390700084460398664483
:1034F0000068F6008146B144002A00D177E74B46C8
:10350000002B00D13DE6D86800F08CFC4B46002132
:103510005046DB680EAA98471FE7694A59001568AC
:10352000CB18DB00ED18002D00D12AE6E86897E7FC
:10353000E388012B00D024E608223B7850469343D1
:103540000EA93B7000F0F8FB9DE5022039780CAB2A
:103550009A1C8B068908DB0F01400B435AE7A379BD
:1035600098467B78984507D07B78002B00D01AE1ED
:103570004346002B00D0ABE0434650460EA97B707B
:1035800000F0DAFB7FE57B780CAA0232137050461C
:1035900001230EA900F0E6FB75E5E3881A0AD8B20C
:1035A0000F2A00D9EDE548499300CB589F460EA855
:1035B00000F03EFC5046A179FFF75EF902223B780D
:1035C00013433B705FE5E388012B00D0D9E5082267
:1035D0003B78504613430EA93B7000F0ADFB52E51B
:1035E000022A00D19BE1394B002B00D1C9E500E054
:1035F00000BF0200002A00D1C3E5D37891781B02F6
:103600000B4350460EA900F0ADFBA6E62B4B2D4810
:10361000994679E7E288002A08D14246FB185D19ED
:103620003035EB78012A37D09B0729D54B46002B44
:1036300000D128E5D86800F0F5FB4B460021DB6897
:103640000EAA50469847002000F0ECFB3423FB5CA8
:10365000DB0700D517E51FE7194A59001568CB1895
:10366000DB00ED18002D00D18BE5E8682EE70CABF0
:103670009A1C504601230EA9157000F073FB02E559
:103680005046FFF74FFA0222EB7813430122EB700A
:10369000EB781343EB70C9E79B07C7D55046FFF79C
:1036A0005BFA4246EB78B343EB70EB789343EB70F5
:1036B000BCE7C046892300101E16002014500010DD
:1036C000D40B002049420010D44F0010000000002D
:1036D000581EC0B2FEF7A2FF002800D151E5437882
:1036E0000893022B00D04CE50121C3799A115B119C
:1036F0000A400B4052011B0113433A782F318A4391
:1037000013433B7009239946C37882781B02134305
:10371000C3180593844B81440493844B0A93844BD0
:103720000693844B079343460B933B004F469946C1
:10373000059BBB4200D8E0E001227B7803920B2B73
:1037400004D1FB7803933B78FF187B78042B00D0DF
:1037500017E5059B0025DB1B9BB21E00049B1A7816
:103760000A9B002B00D18BE0734BB84609930EE007
:103770003200414650469847082801D9864258D21F
:10378000049B01351A78EDB2AA4200D2F9E4069BF7
:10379000079F9542ECD2099A6B0017685B19DB0012
:1037A000FF18BB68E4E75046FFF776F90022BB78C4
:1037B0005D4D5E4E039391462B78002E30D05E4EC9
:1037C00032002E004D469146AB421AD8504600F0CA
:1037D000B3FC01353378EDB2AB42F5D25322002170
:1037E0003800FEF74BFC1022FF21F81CFEF746FCC8
:1037F00038002022FF211330FEF740FC039BBB70F2
:10380000B6E64B461A686B005B19DB00D3185B68A1
:103810005046984701353378EDB29D42D4D9DDE763
:10382000504600F089FC2B78002BD7D033005B6822
:10383000FFDE3B00060047469846039B012B66D0FF
:10384000039B002B0FD00023B97805E0D57001331E
:10385000039ADBB2934206D2CA18D2B24A44D07855
:10386000FF28F3D08DE42B0039003200334800F0FC
:1038700045FE049BBF191B78AB4200D358E780E498
:1038800032003900504600F06DFCB04606000828B2
:1038900002D9434683422DD2049B1B78002B00D1D2
:1038A0006FE400239B68FFDE254B002B00D168E40A
:1038B00000E000BF0200A0E6224B002B00D160E434
:1038C00000E000BF021E00D15BE4504613780EA951
:1038D00000F048FA41E52189FEF7A4FE021EF4D16A
:1038E0004FE4FEF797FE122302000EA9504600F0A7
:1038F00039FA32E50F4B98469FE70B9B4F469846A7
:10390000114B002B00D137E600E000BF34E6424601
:10391000074B92689A4296D1089B039393E7FEF770
:103920007DFE020066E6C0461E16002089230010B8
:103930006541001014500010D40B00201F0F002010
:1039400000000000000000000000000030B587B05B
:103950006B4605000C00981C0A220021FEF78EFB26
:103960006B461D705C70042C4FD009D8022C34D0EB
:10397000032C19D13C4A13785B0758D407B030BDEB
:10398000052C11D1384A1378DB07F7D504211378B9
:103990008B431370354B1C68E269EFF3108172B6EC
:1039A0001368002B09D1FBE7304B1C68E269EFF389
:1039B000108172B61368002BFCD0BFF35F8F2162B9
:1039C0006946200000F0E2FEE269236ABFF35F8FE0
:1039D0000021116083F31088D0E70121224B1A786F
:1039E0008A431A701A780331A2431A7000225A705F
:1039F0001A788A431A701D4B1C68E269EFF3108134
:103A000072B61368002BD8D1FBE7174A1378DB078F
:103A1000B4D5042113780B431370144B1C68E2696E
:103A2000EFF3108172B61368002BC6D1FBE70421B7
:103A30000E20137868448B43137000210A22FEF78E
:103A40001DFB6B466A461D7305235373074B1C68A9
:103A5000E269EFF3108172B61368002BFCD0BFF35C
:103A60005F8F216203A9ACE70C0F0020640F0020D8
:103A700070B584B06B4606000C000A220021981D28
:103A8000FEF7FCFA012301AD6B700E4B2C711C6824
:103A90002E70E269EFF3108372B611680029FCD032
:103AA000BFF35F8F23622900200000F06FFEE26900
:103AB000236ABFF35F8F0021116083F3108804B085
:103AC00070BDC046640F0020002330B585B001AD45
:103AD0006B8028700633082202A86B70FEF7D4FAB8
:103AE0000C4B1C68E269EFF3108372B61168002971
:103AF000FCD0BFF35F8F23622900200000F046FE58
:103B0000E269236ABFF35F8F0021116083F310889D
:103B100005B030BD640F0020F0B5C64600B584B0D6
:103B20001D006B4680460F00160000210622981DDE
:103B3000FEF7A4FA434601AC2370072363700F4BD2
:103B400065711D682771A660EA69EFF3108372B68C
:103B500011680029FCD0BFF35F8F2B622100280081
:103B600000F014FEEA692B6ABFF35F8F0021116039
:103B700083F3108804B080BCB846F0BD640F002009
:103B8000F8B54E46DE4657464546E0B51F000A9B4F
:103B900083460C00161E994637D0702398461C4B5E
:103BA00000259A4617E053462000997800F066FCFD
:103BB00000281CD021005846FEF7F6FE002816D03B
:103BC000A378DA09012A19D04A46137023780135FF
:103BD000E418B54219DA6378052B08D1E3789B071E
:103BE0009B0FBB4203D14246A3781A42DBD0002090
:103BF000F0BCBB46B246A946A046F8BD0B9A0135BB
:103C000013702378E418B542E5DB0120F0E7C046E5
:103C10000C0F0020702270B58B7805000C001A4242
:103C200001D0002070BD064B2000997800F026FCE2
:103C30000028F6D021002800FEF7B6FEF2E7C046C5
:103C40000C0F00207F2270B5154B0A4052009C18C3
:103C5000C90964183034E378DB07DD0F002B18D175
:103C6000E3785B0701D5280070BD01210D4E494264
:103C7000306801F059F8E378DB07DD0F002B0AD13B
:103C8000E3785B0708D40422E37801251343E3704B
:103C900002E00025E7E70025306801F02DF8E2E7B3
:103CA0000C0F0020600F002070B50C0001210F4D9B
:103CB0004942286801F038F87F230D4A23405B0011
:103CC000E409D3181B193033DA780024D20708D45A
:103CD000DA785207D40F002A03DA0421DA788A430B
:103CE000DA70286801F008F8200070BD600F00202D
:103CF0000C0F002070B57F240E4D0C4064002C1971
:103D0000CE09A4193034E578ED0701D5002070BD47
:103D10000126E5783543E570FEF7F2FE0028F6D17E
:103D20000122E3789343E370E37803329343E37033
:103D3000ECE7C0460C0F002070B5094C06000822C5
:103D400020000D00FEF7A0F900238021E360A360AE
:103D50002B783000994300220023FFF7CBFF70BD82
:103D6000B00E0020F8B5CE4647469046264E80B5A8
:103D70008146082230000D001F00FEF785F94346FA
:103D8000B3600023F381EC79AB7924021C43231C3C
:103D9000BC4200D93B1C9FB2B381002C0ED0002F37
:103DA00018D04346002B2CD03B1C402F1BD89FB271
:103DB00033787F2B1CD80021144A0FE080212B7808
:103DC0000022994348460023FFF794FFC0BCB94640
:103DD000B046F8BD7F230022317899433B00484626
:103DE000FFF788FFF2E740239FB233787F2BE2D9B9
:103DF000064C3A0041462000FEF746F98021220099
:103E0000ECE70020E2E7C046B00E0020CC0E002018
:103E100010B5142200210248FEF730F910BDC0464B
:103E2000B00E0020014B18617047C046B00E002054
:103E300010B5054C010008222000FEF725F90023EB
:103E4000A360E36010BDC046B00E002070B5394CD1
:103E50001D0023780600DA09C9098A4213D0002020
:103E6000002D00D070BD344B002B03D0210030005A
:103E7000FEF78CFD2369002B03D0220002213000C5
:103E800098470120EEE7A0687F2B05D8002834D0A2
:103E90002A002A49FEF7F8F8E289A1685219E38856
:103EA00092B24919E281A160934214D03F2D12D9F8
:103EB000A389981A051C80B240282AD82078ADB270
:103EC0007F2828D800219A4232D01C4A2B0030008B
:103ED000FFF710FFC6E72369002B05D02200012160
:103EE0003000984700280AD0802123780022994387
:103EF00030000023FFF7FEFEB4E70020B2E7002108
:103F00003000FEF70FFE30008021FEF70BFE01208F
:103F1000A8E74025D2E79A4207D0084C2A002000A3
:103F2000FEF7B2F880212200D0E780210022CDE701
:103F30000022CBE7B00E00208D290010CC0E00200F
:103F400010B50400FFF704F8002801D1002010BDCF
:103F5000FFF706F80028F9D1B62292006243034B1E
:103F600001309B181B791840F1E7C046D80B0020A0
:103F7000B6239B00434310B50248181800F00EFB0F
:103F800010BDC046E80B0020F0B5B625AD00454396
:103F90002C00C646174F1034E41900B5200092B229
:103FA00000F074FB0600200000F010FB3F2803D84F
:103FB000300080BCB846F0BD7B190020D978984607
:103FC000FFF740FE0028F3D0200000F0FFFA3F2862
:103FD0000AD996239B00EA184346D219D9780020C3
:103FE0004023FFF787FEE3E743460020D978FFF739
:103FF0005BFEDDE7D80B0020F8B50400FEF7A8FF54
:10400000002801D10020F8BDFEF7AAFF0028F9D151
:10401000B6239B005C432500144E2C35AD192800B7
:1040200000F0BCFA0028EDD037190020B978FFF76E
:1040300009FE0028E6D0A6239B009C466444A419F0
:1040400021002800402200F021FBB978051E08D08D
:10405000030022000020FFF74DFE0028D2D02800E8
:10406000D1E70020FFF720FECCE7C046D80B0020A8
:1040700070B5B624A4004443094B0500E4182000A1
:1040800092B200F0BFFB0600200000F087FA3F2844
:1040900001D8300070BD2800FFF7AEFFF9E7C04639
:1040A000040C0020B6239B00434310B502481818A7
:1040B00000F08CFA10BDC046040C0020B622F0B50A
:1040C0001B4C83B0002120009200FDF7D7FFFF2397
:1040D0006371184B80260025E38001270823210007
:1040E0002000760023733200278148310095073B7A
:1040F000103000F019FA2100200049313200FF3160
:10410000012300972C3000F00FFA92239B00E61851
:104110003000FDF78FFB94239B00A662E618300069
:104120006562FDF787FB2664656403B0F0BDC04699
:10413000D80B002000C2FFFF10B5094C052200215A
:104140002000FDF79BFF20002C34103000F0D8FB3E
:10415000200000F0D5FB0121200000F0F7FB10BD8E
:10416000D80B0020F0B54B79060083B0022B02D1AA
:104170008B79022B03D00025280003B0F0BD2F4F10
:10418000BB78002BF7D18B7809253B700C780C1984
:104190006378242B0BD1082A02D81FE0AA421DD332
:1041A0002378E4185D196378ADB2242BF6D0052B83
:1041B00030D0042B12D163790A2B0FD1204B2778F2
:1041C000019301330093022202233000E119FFF72B
:1041D000D7FC0028CFD00E35ED19ADB2194C200018
:1041E00000F0F4F93F28C7D92600103E0020F178EE
:1041F000FFF728FD0028BFD0200000F0E7F93F2896
:1042000016D992239B00E218F17840230020FFF793
:1042100071FDB1E721003000FFF7FCFC0028AAD0B7
:10422000A3787B7023785D19E4186378ADB2C0E79A
:10423000F1780020FFF738FD9EE7C046D80B00203C
:10424000DA0B0020E80B0020F8B560231400127888
:10425000050013400020202B12D12F4A63792779C3
:1042600016781B023B439E420AD16378222B27D04B
:1042700007D8202B17D0212B02D100293DD00120B7
:10428000F8BD232BFCD100293FD00229F7D1234BC5
:10429000002BF4D0E178A37809020020194300E054
:1042A00000BF0120ECE7002927D00229E7D11C4BF1
:1042B000002BE4D00020911DFEF76CF80120DFE711
:1042C000002922D00229DAD101252E00A378E47832
:1042D000013924021C43147126402C321000714015
:1042E00000F034FB0F4B002BC9D0620800203100D6
:1042F0002A4000E000BF0120C2E707232100280078
:10430000094AFFF72FFD0120BAE721002800FFF737
:1043100013FD0120B4E7C046D80B002000000000C8
:104320009523001000000000DE0B0020F8B5454684
:104330005746DE464E46E0B5464D1F00EA788046B9
:104340000C00AB788A4246D000208B421AD0F0BCD9
:10435000BB46B246A946A046F8BD3F4B002B04D051
:10436000484600F02BF900286CD0484600F02EF9A2
:104370003F2807D94E46103E0020F178FFF762FC37
:10438000002851D1AB78A34201D00120DFE7334BA5
:10439000002B02D0002000E000BF0020FFF72CFE21
:1043A0000028F2D12E4C200000F0F8F80028ECD1C3
:1043B000002FEAD0BF06E8D12C3C4046A178FFF799
:1043C00041FC0028E1D0002300224046A178FFF7FD
:1043D00091FC0120BBE796239B00EE1810239B461F
:1043E000AB4431005846BAB200F00CFA1D4BD94626
:1043F000002BB2D06B79FF2BAFD0002FADD0F219CC
:10440000924603E00136B245A7D06B7932789A42E2
:10441000F8D1484600F0D2F80028F3D14B46103BC3
:10442000597900E000BFEDE7484600F0CFF83F289B
:104430000BD9922292004023F1784A440020FFF7E2
:1044400059FC9FE700E000BF8FE7F1780020FFF7FD
:104450002BFC97E7D80B00200000000000000000B4
:10446000040C00200000000010B50020FEF786FDBF
:1044700010BDC04610B5FEF77BFD10BD072210B57C
:1044800044790379224012021A43C3789B079B0F99
:10449000022B05D0032B15D00020012B08D010BD16
:1044A00002291ED00020402393424041C0B2F6E7CB
:1044B00002394B4259410E4B9C4661449142404166
:1044C000C0B2ECE702394B1E99410A4B49421940F0
:1044D0008023DB009C460020614491424041C0B2F1
:1044E000DDE7054BD01843425841C0B2D7E7C0467C
:1044F000FF03000040FCFFFF00FEFFFFF0B5002AB5
:1045000011D000247F274D78052D06D13D008E78EF
:1045100035406D00F6094519AB550D782C19A4B23C
:104520004919A242EFD8F0BDF0B5C64600B5150056
:1045300006AA1E001378802204000F00984612027B
:10454000954229D84069002803D00121494200F052
:10455000EBFBA069002803D00121494200F0E4FBF5
:104560004346A5806D00ADB223726B1EA38100236C
:1045700060696D42E3812760E680658123820028BF
:1045800001D000F0B9FBA069002801D000F0B4FB15
:10459000012080BCB846F0BD0020FAE7C189028A3C
:1045A0008B1A9BB2914202D242899B1A9BB282889B
:1045B000101C9A4200D9181C80B27047C389008A27
:1045C000181A43425841C0B27047C04610B5C4895A
:1045D000018A8388621A92B28C4202D24189521AAD
:1045E00092B2981A80B210BD70B5040080690E00B6
:1045F000002803D00121494200F096FBE089228A7D
:1046000081B2851A93B2ADB2904202D26289AD1ADC
:10461000ADB2A288AA422BD2914222D26089101850
:10462000091A89B221829A4203D89B1A9BB29A42F4
:10463000FBD9E288216853433000C918FDF724FDF7
:10464000228A0125531C9BB29A4215D962899B1874
:104650009BB2A0692382002801D000F04DFB280006
:1046600070BD891AA08989B2884209D315002182B8
:10467000002DDCD1238A9BB2A2899A42E9D2E5E7D8
:1046800060891500091A89B22182F1E7F0B54F4619
:104690004646D6460500806988469146C0B5002842
:1046A00003D00121494200F03FFBEA892B8A91B2F5
:1046B000D61A9CB2B6B29A4202D26B89F61AB6B238
:1046C000AF88B7423DD2B94232D23E006B89FB1867
:1046D000CB1A9BB22B822C8AA4B24B46B1454BD845
:1046E0009EB2A74203D8E41BA4B2A742FBD9EA8832
:1046F0002968914662433B1B9BB289184A469E42F9
:1047000035D953439BB21A0040469A46FDF7BCFC8C
:104710004B464046F71BE4195C4329685044A2B25B
:10472000FDF7B2FC2A8A93199BB29A4210D80CE08A
:10473000C91BAB8989B28B4220D33E0029822C8AC7
:10474000A4B2002EC9D12B8A9BB2AA899A4202D266
:104750006A899B189BB2A8692B82002801D000F0BF
:10476000CBFA3000E0BCBA46B146A846F0BD4046A0
:104770007243FDF789FCD5E7331CB1E76B893E0036
:10478000C91A89B229822C8AA4B2DAE770B504006A
:1047900040690E00002803D00121494200F0C4FA0C
:1047A000E289218A95B2531A9BB2914202D9628959
:1047B0009B1A9BB2A2889A4220D02B00954203D329
:1047C0009B1A9BB29A42FBD9E2882068534331007E
:1047D000C018FDF759FC6B1C9BB29D420AD9628937
:1047E0009B189BB26069E381002801D000F084FA35
:1047F000012070BDA2899A42F4D2F0E7207A002805
:10480000DBD1F6E7F8B54E465746DE4645468946C3
:10481000E0B50600171E59D04069002803D00121D9
:10482000494200F081FAF389327A9BB29846318A84
:10483000F388B5889A4689B2002A39D143465A1A74
:1048400092B2884502D27189521A92B2AA1A111CE8
:1048500092B2BA424ED88FB27A1B93B29B4644466C
:10486000A84503D3641BA4B2AC42FBD253466343B6
:1048700030682D1BADB2C018AF4229D85246494608
:104880007A43FDF701FC4346FB189BB2984519D8C3
:10489000B2899A4216D37069F381002801D000F0E2
:1048A0002BFA3800F0BCBB46B246A946A046F8BD7C
:1048B000AF4221D37F1B5F430023B94488462F00BA
:1048C0009B46CCE772899B189BB2E4E70027E8E798
:1048D00053465D43ADB22A004946FDF7D5FB2200A1
:1048E000534629005A445A43306892B24944FDF76E
:1048F000CBFBC8E7391CAEE77A1B93B29B46AEE709
:1049000010B504004069002803D00121494200F09D
:104910000BFAA069002803D00121494200F004FAF3
:104920000023E3812382A38860695B009BB25A1E47
:104930005B42A2816381002801D000F0DDF9A0690B
:10494000002801D000F0D8F9012010BD70B5040096
:1049500040690D00002803D00121494200F0E4F92C
:10496000A069002803D00121494200F0DDF9606907
:104970002572002801D000F0BFF9A069002801D0FD
:1049800000F0BAF9012070BD10B5024800F0D8F867
:1049900010BDC046E015002030B54B1E012900D1E6
:1049A000A7E0664A11780D092C0030349F2900D900
:1049B000A2E00470012B00D1BEE00F211478214049
:1049C0000C003034092900D998E04470022B00D142
:1049D000B2E054782509290030319F2C00D990E0AD
:1049E0008170032B00D1A7E00F2121400C0030344F
:1049F000092900D987E0C470042B00D19CE0947889
:104A00002509290030319F2C00D97FE00171052B49
:104A100000D191E00F2121400C003034092900D948
:104A200076E04471062B00D186E0D4782509290070
:104A300030319F2C00D96EE08171072B00D17BE0D3
:104A40000F2121400C003034092966D8C471082B8D
:104A500000D171E014792509290030319F2C5FD8ED
:104A60000172092B68D00F2121400C003034092934
:104A700058D844720A2B5FD0547925092900303167
:104A80009F2C52D881720B2B56D00F2121400C0045
:104A9000303409294BD8C4720C2B4DD09479250998
:104AA000290030319F2C00D9073101730D2B43D0E1
:104AB0000F2121400C003034092901D937310C0075
:104AC00044730E2B38D0D1790C09220030329F2943
:104AD00000D9073282730F2B2ED00F220A4011000B
:104AE0003731092A01D830321100C173102B23D07D
:104AF00010300023037030BD07345AE737310C0003
:104B000063E707316CE737310C0074E707317DE765
:104B100037310C0085E707318EE737310C0095E718
:104B200007319DE737310C00A3E70731AAE737319A
:104B30000C00C4720C2BB1D1C018DAE7E0150020CC
:104B400030B5002589B004000922002101A8009594
:104B5000FDF794FA0922002105A80495FDF78EFAC5
:104B60004B236A466846137004A90D2200F0BCF876
:104B70001521082220006944FDF786FA09B030BDEE
:104B800010B5010000230022002000F043F810BD02
:104B900070B5074C074D641BA41005D0013CA30061
:104BA000EB589847002CF9D100F09AF870BDC04638
:104BB000A0080020A008002010B583070AD0030039
:104BC000032102E001330B4205D01A78002AF9D103
:104BD000181A10BD030019680C4A0D4C8A188A4334
:104BE00022420FD15968094A04338A188A43224263
:104BF00008D15968054A04338A188A432242F1D001
:104C000000E001331A78002AFBD1E1E7FFFEFEFE47
:104C100080808080F0B5D6464F4646469846264B63
:104C2000C0B50600186891469A460F0000F054F887
:104C3000A422224B52001B689D58002D32D05346AF
:104C40006C6818681F2C32DC002E0CD1631C0234F7
:104C5000A4006B60675100F041F80020E0BCBA4648
:104C6000B146A846F0BD49468822A300EB189950EA
:104C7000C42149008C46AC446146873AA240096889
:104C800091461143624611608421424649005A50C0
:104C9000022EDBD129004A468D31FF310B681343C8
:104CA0000B60D3E71D004D35FF359D50C7E700F081
:104CB00015F801204042D1E7780800202C50001060
:104CC000034B10B5002B02D00248FFF759FF10BD6F
:104CD00000000000914B00107047C0467047C0466E
:104CE000F8B5C0460000000001B40248844601BC8B
:104CF000604700BF8502002001B40248844601BC21
:104D0000604700BFE901002001B40248844601BCAD
:104D1000604700BF4503002001B40248844601BC3F
:104D2000604700BF0901002001B40248844601BC6D
:104D3000604700BF4901002001B40248844601BC1D
:084D4000604700BFC100002024
:104D480048656C6C6F2C20776F726C6421000000D2
:104D58004E6F207370696E6C6F636B732061726540
:104D680020617661696C61626C6500004E6F207528
:104D780073657220495251732061726520617661B2
:104D8800696C61626C650000486172647761726584
:104D980020616C61726D20256420616C72656164AC
:104DA8007920636C61696D65640000000A2A2A2A0B
:104DB8002050414E4943202A2A2A0A000A000000AE
:104DC80048617264206173736572740052656C6522
:104DD80061736500626F6F74325F77323571303896
:104DE80030000000312E342E300000007069636FEF
:104DF8000000000068656C6C6F5F757362000000EE
:104E0800536570203134203230323200060052505F
:104E1800D3F07542D44D001006005250E182887FCD
:104E2800DC4D001006005250BBFF3CB6F44D00109C
:104E38000D0A0000ED220010F1220010FD220010E2
:104E4800292300102523001000000000555342209C
:104E5800737464696E202F207374646F7574000016
:104E68000600525053B4F4A1544E001052617370AE
:104E78006265727279205069000000005069636FA2
:104E880000000000426F6172642043444300000048
:104E9800526573657400000000000000744E001035
:104EA800844E0010081600208C4E0010984E0010FA
:104EB80009025400030100807D080B000202020071
:104EC8000009040000010202000405240020010575
:104ED80024010001042402020524060001070581BB
:104EE8000308001009040100020A00000007050277
:104EF8000240000007058202400000090402000089
:104F0800FF00010512010002EF0201408A2E0A008B
:104F18000001010203010000556E68616E646C6552
:104F2800642049525120307825780A006570202580
:104F3800642025732077617320616C7265616479E0
:104F480020617661696C61626C65000043616E275F
:104F58007420636F6E74696E75652078666572205B
:104F68006F6E20696E6163746976652065702025AF
:104F780064202573000000006F757400696E0000DE
:104F8800863000106A3200100C320010CA3100104E
:104F9800AC3100109431001028310010D6300010C8
:104FA800CA3000104A350010303500108231001028
:104FB800C635001082310010AE3500109A35001049
:104FC80082310010863500105E35001082310010E5
:104FD800E2380010E0350010D63800108231001099
:104FE80082310010B8380010E0350010823100100E
:104FF800823100108231001082310010823100109D
:105008008231001082310010A8380010BD40001015
:105018003941001065410010494200102D4300102D
:0850280000000000500400200C
:10503000144E0010204E0010900200102C4E001054
:105040009C020010A8020010B4020010684E00106C
:10505000D02330B500251B0600245D5706E0036809
:10506000BFF35F8F1C6081F3108820BF0268EFF3ED
:10507000108172B61368002BFCD0BFF35F8F0379E9
:105080007F2BECD905710368BFF35F8F00221A6094
:1050900081F3108830BDC04603000068EFF3108C28
:1050A00072B60268002AFCD0BFF35F8F04229A56C2
:1050B000002A04DB002900D00A60002004E0D0228E
:1050C0000120120612681A711B68BFF35F8F00225D
:1050D0001A608CF310887047F0B5C64600B582B0F0
:1050E0000C00070000F008F9FA220023009001915B
:1050F00020009200002100F0EFF8009A019B1400BC
:105100001D0024184D41AB422FD82BD0D0231B06B5
:105110001B68002698460BE03B68BFF35F8F1E605C
:1051200081F310882000290000F0DEF8002820D14B
:105130003A68EFF3108172B61368002BFCD0BFF30E
:105140005F8F3B797F2BE7D943463B713B68BFF3C9
:105150005F8F00221A6081F31088012002B080BCAA
:10516000B846F0BD009BA342D0D901246442E517A4
:10517000CCE70020F2E7C0460268EFF3108172B678
:105180001368002BFCD0BFF35F8FFF23037103680C
:10519000BFF35F8F00221A6081F3108840BF704711
:1051A00010B5084C2378002B0AD180230648074904
:1051B0005B051A68C25004338B42FAD10123237075
:1051C00010BDC0462016002038100010000100104D
:1051D00010B5014B984710BD39100020034B1A68D9
:1051E000C0239B009343024A136070470C80014028
:1051F0000C900140054B1A6880239B005340C0224D
:1052000092001340024A13607047C0460C80014070
:105210000C9001401423F0B5D6464F4646469A46B8
:10522000814618880433C0B598460E001B8826496D
:1052300014009847534607001888434623491B88A3
:105240009847534605001888434621491B889847CC
:105250008046FFF7A5FFB847A847FFF7CBFF221E00
:1052600020D0C02108270220490511E0002C14D0CD
:10527000131B0D2B20D9002D0AD02300002A05D0A6
:105280000B6E013A3370130001362343002B09D013
:105290003D008B6A1D401842E8D1002DEDD123005E
:1052A0001343F5D1FFF79AFFC047FFF791FFE0BC2A
:1052B000BA46B146A846F0BD4B461B78013C0B668A
:1052C00001239C46E144E8E74946000045580000B8
:1052D000464300007047C04601B40248844601BC02
:1052E000604700BFA91F001001B40248844601BCFA
:1052F000604700BFE910001001B40248844601BCB9
:10530000604700BF6912001010000000000000009C
:10531000000001000000000000000000000002008A
:10532000000000000000000000000300000000007A
:10533000000000000000FF000000000000B5486809
:1053400001318E460047704609380149884700BD43
:10535000B9080010DC03002000000000C80800208D
:105360003C11002000000000000000004C11002053
:10537000000000000000000010000000000000001D
:10538000503300004C33000054330000523300000F
:105390004D5300004D4300005334000043340000DF
:1053A0003124001000000000C9230010000000009C
:1053B00000010000804F0010844F0010680F002093
:1053C00010000C000000E0FF1F00000000000000C3
:1053D00000000000000000000000000000000000CD
:1053E000000000003C070020A40700200C0800205B
:1053F00000000000000000000000000000000000AD
:10540000000000000000000000000000000000009C
:10541000000000000000000000000000000000008C
:10542000000000000000000000000000000000007C
:10543000000000000000000000000000000000006C
:10544000000000000000000000000000000000005C
:10545000000000000000000000000000000000004C
:10546000000000000000000000000000000000003C
:10547000000000000000000000000000000000002C
:10548000000000000000000001000000000000001B
:105490000E33CDAB34126DE6ECDE05000B000000E0
:1054A00000000000000000000000000000000000FC
:1054B00000000000000000000000000000000000EC
:1054C00000000000000000000000000000000000DC
:1054D00000000000000000000000000000000000CC
:105800000000000000000000D00B0020000000009D
:10581000000000006D200010251E0010E51E001085
:10582000DD1F0010C14C0010C50200108949001096
:04000005100001E9FD
:00000001FF
