:020000041000EA
:1000000000B5324B212058609868022188439860DF
:10001000D860186158612E4B002199600221596106
:100020000121F02299502B49196001219960352056
:1000300000F044F80222904214D00621196600F024
:1000400034F8196E01211966002018661A6600F04E
:100050002CF8196E196E196E052000F02FF8012189
:100060000842F9D1002199601B49196000215960AB
:100070001A491B48016001219960EB211966A021F2
:10008000196600F012F800219960164914480160C1
:100090000121996001BC002800D000471248134993
:1000A000086003C880F30888084703B5996A0420EC
:1000B0000142FBD001200142F8D103BD02B5186610
:1000C0001866FFF7F2FF186E186E02BD00000240BE
:1000D000000000180000070000035F00212200005C
:1000E000F4000018222000A00001001008ED00E03C
:1000F00000000000000000000000000074B24E7A12
:1001000000200420F7010010C3010010C5010010F9
:10011000C1010010C1010010C1010010C101001097
:10012000C1010010C1010010C1010010C701001081
:10013000C1010010C1010010C9010010CB01001065
:10014000CD010010CD010010CD010010CD01001037
:10015000CD010010CD010010CD010010CD01001027
:10016000CD010010CD010010CD010010CD01001017
:10017000CD010010CD010010CD010010CD01001007
:10018000CD010010CD010010CD010010CD010010F7
:10019000CD010010CD010010CD010010CD010010E7
:1001A000CD010010CD010010CD010010CD010010D7
:1001B000CD010010CD010010CD010010CD010010C7
:1001C00000BE00BE00BE00BE00BE00BE00F04BF888
:1001D000103800BEF2EB88711478001034780010EB
:1001E0003402001090A31AE700202149086006C8D5
:1001F00081F3088810471F48006800282FD10DA4FC
:100200000ECC002902D000F012F8F9E71A491B4A77
:10021000002000E001C19142FCD1194988471949E9
:1002200088471949884700BEFDE701C901C29A42C3
:10023000FBD3704734780010C0000020A8080020CD
:100240001C80001000000420000004201C8000100E
:1002500000100420001004200000000070470B482C
:1002600003F062F90047EFF30580C0B27047000069
:1002700008ED00E0000000D0A8080020381600209B
:1002800071180010E50200105D19001057560000AB
:1002900006005250ABB36053B875001006005250C0
:1002A000861C0302C8750010060052505422A29DFD
:1002B000D875001005005250DE65F4681C800010EF
:1002C000F8B5C046044B10B5002B03D003490448D1
:1002D00000E000BF10BDC04600000000C8150020AF
:1002E000D8720010F0B5CE46474680B5304C89B084
:1002F00004F0DAF92F49200006F024FE00238022C2
:100300000393F82352025B0200920193C02305007D
:100310001B031022694604A8029303F0EFFF2B0091
:100320000833EA011B03134304A91022684605930E
:1003300003F0E4FF2A006B460021200006F07AFE5D
:10034000012223681C481343236004F0ABF80A23FE
:1003500098461A4B8025802699466D02760006F055
:10036000D3FE642103F012F90F0006F0CDFE6421E4
:1003700003F00CF90A0063682B42FCD12761636823
:100380002B42FCD1226163683342FCD1236A3900DD
:10039000484604F07DF901235B429C46E044434615
:1003A000002BDCD1002009B0C0BCB946B046F0BD7E
:1003B0000000205008730010D8720010F87200106E
:1003C000EFF3108072B6034A1368002BFCD0BFF322
:1003D0005F8F70472C0100D0BFF35F8F0022024B6C
:1003E0001A6080F3108870472C0100D070B5EFF3CD
:1003F000108C72B60D4D2B68002BFCD0BFF35F8FB5
:100400000724CB08C618C05C01230C40A3401C0085
:100410000440034207D118433070BFF35F8F2C6054
:100420008CF3108870BD100001F09AFA2C0100D0F6
:10043000F8B54746CE46884680B5EFF3108C72B6C5
:10044000214D2C68002CFCD0BFF35F8F9A422CD832
:10045000D4080727055D061901241740BC402C422B
:100460001FD007210127894609E0D408055D061938
:100470004C4639001440A1400C00294211D00132F1
:100480009342F2D201204042BFF35F8F00220E4B15
:100490001A608CF3108800280FDBC0BCB946B04648
:1004A000F8BD254310003570EEE7BFF35F8F0023E2
:1004B0002B608CF31088012040424346002BECD087
:1004C000089801F04DFAC0462C0100D0024B186884
:1004D0008007C00F7047C04600C006400021044B93
:1004E000044ABFF35F8F02C39342FAD17047C046FC
:1004F000000100D0800100D0044A1078431CDBB218
:10050000172B00D9102313707047C04678030020C2
:1005100010B5064B064C82B00100009318221F2331
:100520002000FFF785FF02B010BDC0462473001005
:100530004811002001238340002904D0034A13609E
:10054000034A13607047034A1360FBE780E200E050
:1005500000E100E080E100E001238340014A1360F4
:100560007047C04600E200E0084B10309B688000F6
:10057000C358002B07D0064A00209B1A2F229A420C
:100580004041C0B270470020FCE7C04600ED00E0EB
:100590007C030020024B10309B688000C0587047DD
:1005A00000ED00E070B50D00EFF3108672B60F4A53
:1005B0001368002BFCD0BFF35F8F0D4B10309B688E
:1005C00084001B590B4A934203D09D4201D001F095
:1005D000DFF9074B9B681D51BFF35F8FBFF35F8F40
:1005E0000022024B1A6086F3108870BD240100D0EF
:1005F00000ED00E0CD010010F0B54E464546DE4668
:100600005746E0B583B0060000919046EFF3108B9B
:1006100072B6664A1368002BFCD0BFF35F8F0025CB
:10062000634B5D579A46002D00DA7AE052466B0024
:10063000604C5F19BF000193E31999469B7910360E
:1006400013705D4BB6009B6899590B1B2F2B33D948
:100650005A4B994200D07DE0019B02379C46584B93
:100660006544AD006353574BE719043BDB1B564A07
:100670001B055B0D651913436B80544B0121AB8047
:10068000FF23AB714346EB71009BAB604B460B43C2
:100690001900494B9B689951BFF35F8FBFF35F8F80
:1006A0000022424B1A608BF3108803B0F0BCBB46AB
:1006B000B246A946A046F0BD01200A008243D37984
:1006C00043454AD9BC464746884607E05800C0180B
:1006D00080002018C179B94229D902000623D356D7
:1006E000002BF3DA9A464146131DB846BD279C46B7
:1006F0003F02484663460438C01A0005324B400D9D
:100700001843019B908095715A1953469200A41882
:10071000A37143462E4AE371009B2260A780A36029
:10072000B7E701F035F9002553465D577EE79A4655
:100730004146131DB84667469C46908804374005DD
:100740000015E7196044C01BE0270005400D3F027B
:100750000743CEE701F01CF97EE713001D491B1B80
:100760005B415943090D164BBD1CE353154B6519ED
:10077000043B5B1B1B05144D5B0D2B43AC464D46E8
:100780006B8065460437131FE719DB1B1B055B0DE8
:100790001D434B4699714146D97100999D809960DE
:1007A00049460B4B0143136073E7C046240100D058
:1007B000321600207C03002000ED00E0CD01001087
:1007C00000A1FFFFAC03002000E0FFFF00BDFFFF22
:1007D00001488047AAAA0000F0B5DE4657464E46BB
:1007E0004546E0B50C0083B0EFF3108A72B6604A5C
:1007F0001368002BFCD0BFF35F8F10229146814419
:100800004A465C4B96009B689D595B4B98469D42BF
:1008100005D0A54216D0594FEB1B2F2B14D9554BA1
:100820009B689D51BFF35F8FBFF35F8F0022504BDA
:100830001A608AF3108803B0F0BCBB46B246A946E2
:10084000A046F0BD1D00EAE7012383409B465A46BF
:100850004B4B1B681A4000925A464A4B1A60BFF332
:100860005F8FFFF700FD031E01901DD12A000133A9
:100870009A439068844208D171E04B005B189B005A
:10088000FB189868A04245D01A000621515600294D
:10089000F3DA84426AD0009B002B34D05A463A4B9C
:1008A0001A60374B1A60BAE7814530D12A0001231C
:1008B0009A4390688442E8D10621515613000029DA
:1008C00040DB4A00501880003C188046A0689860C1
:1008D000E079D87106202056987100282FDBA48873
:1008E000F81A6405241544440019E0240005400D5D
:1008F0002402204398805318244A9B001078FB1848
:1009000098711170C7E75A461E4B1A6087E701F0CD
:100910003FF8CBE7062159560029D2DA0199002980
:1009200010D1FF3191711A49918018490A789A7152
:10093000184ADB1B5B415A43120D0A70ABE7BD201E
:100940000002D7E7144A1549D21A083A5002400D5E
:1009500001439980124952080A43DA809BE7062135
:10096000515613000029ACDA4546DEE71300D5E7FF
:10097000240100D000ED00E0CD0100107C03002038
:1009800000E100E080E100E080E200E032160020BB
:1009900000BDFFFFAAAA0000B603002000F0FFFF81
:1009A00000F8FFFFF8B5012504000543FFF75BFCE5
:1009B000EFF3108C72B6214A1368002BFCD0BFF302
:1009C0005F8F1F4E2100B7681E4A1F4B891A49418D
:1009D0004B431B0D59B28300F858A8421CD0062384
:1009E000D3568B421CD01223D3568B4222D01E23C7
:1009F000D3568B4220D02A23D35603208B4210D0CB
:100A0000124B1A781970A271BFF35F8F00220B4B43
:100A10001A608CF31088F8BDB2680D48D050EFE72B
:100A2000002043001B189B00D218FF239371094B31
:100A30009380E5E70120F4E70220F2E7240100D0EB
:100A400000ED00E07C030020AAAA0000321600207E
:100A5000CD01001000BDFFFF054B064A1360064A9A
:100A6000136053609360D360136153619361704767
:100A70008080808000E400E004E400E0D02300B542
:100A80001B061B680100074883B01818064B00229C
:100A900000930523FFF7CCFC002801DB1F23181A65
:100AA00003B000BD2C16002040730010024B9C4682
:100AB00061448900016070474000003483680B483E
:100AC00010B58446614462441201090159189B180B
:100AD0005C684A680120944201D802D00020C0B26C
:100AE00010BD1A680B689A42F9D8F7E7FFFFFF0FAD
:100AF0000A4B1968EFF3108072B60A68002AFCD01E
:100B0000BFF35F8F1B68BFF35F8F00221A6080F313
:100B1000108840BF002000217047C046FC1500200F
:100B2000F8B5574645464E46DE46E0B598460CAB0E
:100B30001C780DAB1B78070091469A460568002C7F
:100B40005AD1AC7B002C3BD0660029683619033E95
:100B500089194B78AB73002B00D1EB7300238B709A
:100B60004B700B702B4BE218BB6812019B184A4666
:100B70001A6042465A600A9A9A600B9ADA60002319
:100B80008B704B700B706B7B9B46002B27D0220029
:100B90006B685946A86898475B465B005B442A68C7
:100BA000033B002812D058469619B070D118D35C78
:100BB000002B00D073705B460C706B735C450FD0DC
:100BC000F0BCBB46B246A946A046F8BDD3189C70FF
:100BD0009119925D002A00D05A705B460B706C73BD
:100BE0004A464346387D00F093FB051E0AD10E9B12
:100BF000002BE5D01D70E3E7660029683619033E37
:100C00008919AFE75346002BF1D12100386800F075
:100C1000C9FDECE7FFFFFF0FF0B5DE4657464E4635
:100C200045460023E0B58DB00A936A4B8200D75841
:100C300000239B460B9000F01BFB02000B00786822
:100C4000EFF3108972B64D4601680029FCD0A94621
:100C5000BFF35F8F39684E7B8C46002E2ED0BC6868
:100C60005D49A246711809018A44514608684968DD
:100C700004000D00A41A9D41002D5EDD02000B0052
:100C80000B9800F045FB002300229A4600230892AF
:100C90000993002398467B68BFF35F8F5A461A601A
:100CA00089F310884346002B12D10028C3D10DB020
:100CB000F0BCBB46B246A946A046F0BD00230022C8
:100CC0009A46002308920993002300209846E2E701
:100CD0000A9B514618023043C047069007917A6834
:100CE000EFF3108572B654461368002BFCD0A24671
:100CF000BFF35F8F0699079A002A3BDB114302D0AE
:100D00003B69002B52D13B68D97B002905D01A687A
:100D1000480041185218033A5670DE73FA68013ED3
:100D2000935D013393555B463B617B68BFF35F8FF7
:100D30005A461A6085F310887DE7002D01D1002CFA
:100D40009CD10021604600F095FC53465C681B680E
:100D50000893099453469B6898465346DB689A4625
:100D6000FB689B19013B1B780A931B0203433B6101
:100D7000002090E73B69002BC5D0089B099C5B1ABB
:100D80009441089809991A002300A14219D8994260
:100D90001BD000210491013103915146019141463C
:100DA000380002960091FFF7BBFEBCE700F060FA46
:100DB000069A079B12184B41994202D8E9D19042FA
:100DC000E7D901225242D317E3E708999142E0D9CB
:100DD000F7E7C046E0150020FFFFFF0FF8B55746C4
:100DE0004E464546DE46E0B53E4D824689466A6837
:100DF000EFF3108872B61368002BFCD0BFF35F8F3F
:100E00002E68B47B002C48D0670033683F19033F3D
:100E1000DB195A78B273002A00D1F273324AA11852
:100E2000AA680901521851461160494651602F497C
:100E300091600021D160997059701970737B9B4645
:100E4000002B41D0220073685946B06898475B4632
:100E50005B005B443268033B00282CD05846D7190E
:100E6000B870D118D35C002B00D07B705B460C703F
:100E700073735C4529D00026EB681B19013B197878
:100E80006B68BFF35F8F00221A6088F31088002020
:100E9000002E0AD10802204307E06B68BFF35F8F82
:100EA0001C6088F3108801204042F0BCBB46B2466B
:100EB000A946A046F8BDD3189C70D119D25D002A6E
:100EC00000D05A705B460B70747352464B46287DB7
:100ED00000F01EFA061ECED02100286800F062FC49
:100EE000CAE7C046C4030020FFFFFF0FF10A00104D
:100EF00010B5124C6368002B04D00A211048FFF78C
:100F0000D5FD10BD23000F4A1021206800F0B8FA6B
:100F1000032000F0A1F9032000F068FA03200A4939
:100F200000F0B0F9FFF7E8FA084B9C460323604451
:100F30002375074B80006060DC60DEE7C40300209F
:100F4000FC150020BD0A0010190C001040000034F0
:100F5000E015002000487047C4030020F0B5574654
:100F60004E464546DE46E0B585B0019310AB1B7892
:100F70000600039300239A46984600927268EFF3A6
:100F8000108B72B61368002BFCD0BFF35F8F3568EF
:100F9000AC7B002C6AD067002B683F19033FDB193C
:100FA0005A78AA73002A00D1EA73504AA118B2688D
:100FB0000901521800980199106051600E999160D2
:100FC0000F99D16042469A705A701A706B7B99469D
:100FD000002B00D170E022006B684946A868984752
:100FE0004B465B004B442A68033B00285BD04846D5
:100FF000D719B870D118D35C002B00D07B704B464A
:101000000C706B734C4558D0F3681B19013B187872
:101010007368BFF35F8F42461A608BF310885346A4
:10102000002B08D10002204305B0F0BCBB46B246FD
:10103000A946A046F0BD039B002B54D00E9B002078
:101040000F99984703000B434DD004000D1E16DA8C
:101050000098019902000B00121BAB4199421CD869
:1010600038D000920193039B9A4687E77368BFF3D9
:101070005F8F1C608BF3108801204042D4E700F0A2
:10108000F7F802000B00A4185D4100940195A942F5
:1010900003D8E8D100998A42E5D901235B42DC17E5
:1010A00000930194DFE7D3189C70D119D25D002A18
:1010B00000D05A704B460B706C73307D009A019BC8
:1010C00000F026F9824600289ED02100306800F00A
:1010D00069FB99E700999142C3D901235B42DC1770
:1010E00000930194BFE700209EE7C046FFFFFF0F7B
:1010F000F8B5CE46474680B505000C00FFF76EFEFA
:10110000031E11DC244A0020536AA34203D3926ACF
:101110000130AA4203D3C0BCB946B046F8BD1B1B80
:101120005A1E9341D8B2F6E720BF1C4E7168EFF308
:10113000108772B60A68002AFCD0BFF35F8FDAB25C
:101140009446FF2230681A40417B61450AD001680D
:10115000894651008846494690444144033989787C
:1011600000290FD0F1681B0A8A18013A1278DBB205
:101170009A420CD07368BFF35F8F00221A6087F326
:101180001088BFE732699342F4D13161F2E76146DA
:1011900000F008FBEEE7C04600400540C403002015
:1011A000F0B5D6464F464646C0B5EFF305823F231D
:1011B000134018001038EFF3108C72B620490A68FB
:1011C000002AFCD0BFF35F8F0122170087401D4C1F
:1011D0001600A24667631C4C2578A0462C00C4402C
:1011E0002640224215D05246566A184A8400A25818
:1011F000964218D34246164BBD43E3581570BFF3D1
:101200005F8F00220A608CF31088002B06D098476D
:1012100004E0BFF35F8F0E608CF31088E0BCBA4629
:10122000B146A846F0BD0B4A9B00904643441A685D
:101230001A60BFF35F8F00230B608CF31088EDE71B
:10124000280100D000400540351600200816002077
:1012500038100020D03F054010B5034B01001800A6
:10126000024AFFF7C3F810BD311600205C7300106E
:10127000034B596A0A00986A596A8A42FAD1704740
:101280000040054070B504000D00EFF3108672B603
:101290001A4A1368002BFCD0BFF35F8F002D1BD0C0
:1012A0002000FFF777F9164981420AD02000FFF7A6
:1012B00079F901212000FFF73DF90123A340114AEC
:1012C0001360114BA400E550BFF35F8F00220B4B5E
:1012D0001A6086F3108870BD0121A1400A4BA2005C
:1012E000D5500A4B20001A788A4305491A70FFF737
:1012F00073FA00212000FFF71DF9E5E7280100D06F
:10130000A11100103860054038100020351600206B
:10131000F0B54F46D6464646C0B507002E4C616A2A
:101320000D00A66A616AA942FAD18B4208D805D09D
:101330000120E0BCBA46B146A846F0BDB242F7D99A
:10134000EFF3108A72B6254801680029FCD0BFF37C
:101350005F8F0125BD4022491F4C88460978894688
:101360002943C9B28C46414660460870391D890040
:1013700065630A511B49B8004350216A0020294285
:1013800019D0616A0800A66A616A8142FAD18B426B
:1013900019D801D1B24216D8CC450BD00E4B1F2222
:1013A0001D625D6301233A4093400F4A1360434638
:1013B0004A461A700120BFF35F8F0022074B1A6064
:1013C0008AF31088B5E70020BFF35F8F0022034B3C
:1013D0001A608AF31088ACE700400540280100D06D
:1013E000351600200816002080E200E0EFF3108C94
:1013F00072B60A490B68002BFCD0BFF35F8F012344
:101400008340074A0748136202789A430270BFF389
:101410005F8F00230B608CF310887047280100D089
:10142000004005403516002070B506000D00140080
:1014300000291DD0002A12D0736880689847620086
:101440006B0012195B193168033A033B002808D07E
:101450008A189570C818CB5C002B0BD1047028003B
:1014600070BDCB189C7088188A5C002A05D1057065
:101470002000F5E753700470F1E75A700570F7E744
:1014800010B583600023CCB2437301334260047310
:101490008373C4730068421C012C05D90133DBB28D
:1014A000137003329C42F9D1FF230B405A00D3182A
:1014B000C01800230338437010BDC04670B5050046
:1014C0000C1E07D0630001681B19033BCB185A7828
:1014D000002A01D1200070BD50008018033809187F
:1014E00000204E784870210058702800FFF79CFFBC
:1014F000310004002800FFF7E1FF0600002C20D097
:101500000028E7D0320021006B68A8689847720075
:10151000630092191B192968033A033B002808D07D
:101520008A189470C818CB5C002B00D053700670DA
:10153000D0E7CB189E7088188A5C002A00D05A70B9
:1015400004703400C6E7C046F8B557464E464546D7
:10155000DE464C00E0B5641817000268033C050045
:10156000105D13190E009C46002852D04300984687
:101570001B18033BD31859788A46002919D1002F2C
:101580000CD0EC7B002C50D063001B19D318033B0C
:101590005E70EE73434619180339531800229A708F
:1015A000002362465370F0BCBB46B246A946A04633
:1015B000F8BD49005144033952185178884600213A
:1015C000517089465970524601002800FFF72CFFE0
:1015D00043468246002B07D05B0029684344033B07
:1015E000CB185A78002A2CD1514642462800FFF7E2
:1015F0001BFF0100002F1AD0A4462A68EF7B9444F9
:10160000002F04D07B00DB19D318033B5E70EE7310
:1016100010E0002FC4D0E97B002910D04B005B18EC
:10162000D318033B5E70EE73BAE7EE73B6E7A446D9
:101630002A6894440029B3D04B009846AAE7EE7379
:10164000AEE75000801803380918487883464846AA
:101650004870587041462800FFF7E6FE594680461C
:101660002800FFF72BFF414602002800FFF7DCFEB1
:101670008046B9E7F8B557464E464546DE46E0B5E2
:10168000467B02687500AD19033D0F00515D53198B
:1016900004009C46002953D04B0098465B18033B3E
:1016A000D3185878824600281BD1002F0CD0E57B38
:1016B000002D51D06B005B19D318033B5E70E673AD
:1016C000434658180338131800229A7000236246C4
:1016D000300053706173F0BCBB46B246A946A046C9
:1016E000F8BD40005044033812185078804600205E
:1016F00050708146587052462000FFF795FE4346D1
:101700008246002B07D05B0021684344033BCB1883
:101710005A78002A2CD1514642462000FFF784FE19
:101720000100002F1AD0AC462268E77B9444002FBA
:1017300004D07B00DB19D318033B5E70E67310E026
:10174000002FC3D0C07B002810D043001B18D31833
:10175000033B5E70E673B9E7E673B5E7AC46226813
:1017600094440028B2D043009846A9E7E673ADE759
:101770005000801803380918487883464846487056
:10178000587041462000FFF74FFE59468046200022
:10179000FFF794FE414602002000FFF745FE804619
:1017A000B9E7C04670B5050000292CD0437B8B42B9
:1017B0002ED04C0000686418033C0419A278002A5B
:1017C00021D053009B18033BC25CC6188A4202D149
:1017D0001BE0002A08D053009B18033BC3185A781B
:1017E0008A42F6D162785A70002301222800A37041
:1017F0006370FFF7A9FE697B02002800FFF714FE63
:101800006873012000E0002070BD63783370EBE75F
:1018100001221900FFF798FEF2E7C04610B5040058
:10182000FEF76AFE01002000FFF740F9FF23237155
:10183000BFF35F8F10BDC04610B50400FEF75CFE1D
:1018400001002000FFF732F9FF23A380BFF35F8F71
:1018500010BDC04610B504000120FEF759FE034B31
:10186000C3189B002360BFF35F8F10BD400000349E
:101870002B4B2C4A70B51A602B4A2C4B2C491A6002
:1018800014008B689C43FBD12A4D2B4EB54208D2E5
:10189000013E761BB60808CD984723000134B342B9
:1018A000F9D100F07BF8254A204B1A60204A936852
:1018B000DB43DB01DD09002BF9D14022204B214E17
:1018C000214C9A675A671A67DA66B44208D22368CD
:1018D00020000834002B1FD0FFF7AEFFB442F6D330
:1018E0001A4C1B4EC022B168200002F007FDB46004
:1018F000FEF7F4FDFFF7B0F8FFF7FAFA154C164EB5
:10190000B44208D2013E361BB60808CC98472B00DB
:1019100001359E42F9D170BDFFF780FFD5E7C04683
:1019200000E00040BFCDFBFEFE7F3C0000F0004029
:1019300000C000408C0800209C080020FFFFFF0131
:1019400000F001408C0800208408002000000020E6
:1019500000ED00E09C080020A808002000BEFDE784
:101960000FB400B5084883B002F09CFD049B002B27
:1019700007D005A91800019101F0B6FD034802F057
:1019800091FD00BEFDE7C046807300100473001097
:1019900010B50148FFF7E4FF9073001010B50C205C
:1019A00082B000F0A9F9FEF791FD002810D0864B17
:1019B00086488649864A186059609860D9601861DF
:1019C00059619861D961186259625A6202B010BDBA
:1019D000804CA06700F0E6F901227F4B1A60636C2F
:1019E000012BFCD103227D4B1A607A4A936B012BA9
:1019F000FCD1013301217A4A7A480093043300F084
:101A000027F90523784A00930121784800F020F94E
:101A1000774B5A68FF2A02D8802252005A608022EF
:101A20006E4B694C12011A602169002905D060696A
:101A300001F0D4FD01300138FDD1E0226C4B6D483E
:101A400019680A40026002221968514001320A40B6
:101A5000042102609A681142FCD08021664A090183
:101A60001160802252005A60644B2361644B5968B4
:101A7000FF2900D85A6003220121574B1A60604A9F
:101A800093681942FCD0E023106803405D4803606E
:101A9000126803234A4002211340594A03609368A5
:101AA0001942FCD08021584B090119608021574B05
:101AB000490051606361564B5A68FF2A00D859604B
:101AC0008022544B12011A60E169002905D0606937
:101AD00001F084FD01300138FDD1E0234C4A11684A
:101AE0000B404D490B6080214C4B0901196080214E
:101AF000364B49005160E361494B5A68FF2A00D8D0
:101B000059608022474B12011A60216A002905D0D2
:101B1000606901F063FD01300138FDD1E023404AE6
:101B200011680B4040490B608021404B090119604E
:101B300080235B0053608022244BD20223623C4B03
:101B40005968914200D25A6080223A4B12011A60C1
:101B5000616A002905D0606901F040FD013001385B
:101B6000FDD1E023324A11680B4033490B608021DC
:101B7000324B090119608023DB025360144B63620E
:101B80002F4B5A68FF2A02D8802252005A608022C6
:101B90002C4B12011A60A169002905D0606901F07F
:101BA0001DFD01300138FDD1E023254A11680B40AD
:101BB00025490B608021254B0901196080235B00BA
:101BC0005360124BA36101E7A8080020006CDC02FF
:101BD0001BB70000008000403CB0004030B0004027
:101BE000002F685900800240008C864700C00240E8
:101BF000308000403090004030A00040001BB70013
:101C00003C8000403C9000403CA00040405973079D
:101C10005480004054B000405490004054A0004014
:101C20006080004060B000406090004060A00040D4
:101C30006C8000406CB000406C9000406CA0004094
:101C40004880004048B000404890004048A0004014
:101C5000F8B504000C2017001D000E0001F0BEFCBA
:101C600043011B1A9901C91AC900091889013800D2
:101C700001F0B4FC069B29041B0319432368002BC5
:101C800020DB194B194DE3185A425341802252016F
:101C900094461B03164A63441360164A13601F00E0
:101CA000AA689743FBD1C023221D9B011343212225
:101CB0002660A0601A602268002AFCDA0822E1602F
:101CC0001A60F8BD3F2322681340B342D9D1A368FC
:101CD0001B051B0D8342D4D1EE22E368D2021340D0
:101CE0008B42CED1EDE7C0460040FDBF00C00040B2
:101CF00000E0004000F000408023024A9B000343C4
:101D0000D36270470080054010B580241C4BE40569
:101D10001C6000281AD001231A4C18431A4BDC61AE
:101D20001A4C44401C62596298628021144BC905C8
:101D30001960174817490860E021C9041960002A92
:101D400007D18022144B12061A6010BD0E4BD861C9
:101D5000EBE753019B1A9B009A18802312015B0446
:101D60009A4209D213000D490B60074B5A6080223A
:101D7000094BD2051A60E8E7094B1A00F3E7C046A1
:101D800000B00540D3C007B0008005402D3FF84F9C
:101D9000FCFF01000820014000A00540C015002004
:101DA000FFFFFF00AA23064A1B0113602F230549EA
:101DB000D360054B19605368002BFCDA7047C046AE
:101DC0000040024000B0FA00006002407047C04688
:101DD000F8B557464546DE464E46E0B598460A9B5E
:101DE00006009A460D9B0F00934615009B0710D1E5
:101DF0000B9B0C9A93420CD213005C460B9A9D1AD3
:101E00005D4422004346013439002020B047A542FA
:101E1000F7D10B9C6319002C09D01D0053462A1BD7
:101E2000013C185D39004346B047002CF6D10D9BAC
:101E30009B070ED55B46EC1A0C9BA34209D9994629
:101E40002A004346390020200134B0470135A1451E
:101E5000F6D82800F0BCBB46B246A946A046F8BD5D
:101E6000F0B54F464646D646C0B584B098460EAB50
:101E70001B7894469946129B0D9C109F119E9A07C1
:101E800024D4002E6AD1BC4220D201221A409246AC
:101E9000202C00D1D2E00C9A551E302201E0202CDB
:101EA00030D001342A55A742F9D85246002A0DD025
:101EB000B4420BD20C9A551E3022202C02D126E0BF
:101EC000202C63D001342A55B442F9D1DA0634D536
:101ED0005A0564D4002C5ED10F9A102A00D197E0E5
:101EE000022A00D1A8E030220C9C227001244A462C
:101EF000002A5ED15A0700D483E02B220C9D2A557C
:101F000001341CE05246002A02D0202E3ED9202463
:101F1000DA0614D55A0512D4202F00D1A1E0202EC4
:101F20003DD120261F2234000F9D102D00D18BE0C3
:101F3000022D52D030250C9FBD54202CD7D10393B5
:101F40000C9B62460093029643460194FFF740FFC4
:101F500004B0E0BCBA46B146A846F0BD0122150067
:101F60001D40AA461A4229D04A46002A39D10C32CD
:101F70001A4236D1BC429BD2202C00D08BE71022D3
:101F80001A40202EC3D8002AA2D1D8E72024DA068E
:101F9000D5D55A0503D4A74225D0B44223D00F9AF1
:101FA000102A25D0022A14D0202CC8D022000134B7
:101FB000C0E72D220C9D2A550134C0E7BC4200D356
:101FC00084E7202C00D066E710221A40002AE0D1D6
:101FD000B5E7202CB3D02200013462250C9FBD54FC
:101FE000E2E7013EC6E7621E012C00D174E79BE7E1
:101FF0009A0616D4202CA2D078220C9D2A550134A2
:10200000D2E71A079BD520220C9D2A55013496E76A
:102010009A060FD478220C9C22703022627002241F
:1020200065E7202C00D18AE758250C9A1219157003
:102030000134B9E75822EEE76222ECE71022554658
:102040001A40002D9FD1C1E7023C9D0604D478259B
:102050000C9F3D551400A9E758250C9F3D551400D1
:10206000A4E71F2260E7C04610B5002800D110BDCC
:1020700002F0C6F9FBE7C0460B0010B5002802D0FD
:1020800049681B68984710BDF0B557464E4645460F
:10209000DE46E0B599B08246894690460893229A7A
:1020A000239B1000190001F062FD002800D0CDE054
:1020B000229823990122D94B524201F053FD002866
:1020C00000D0C3E0229823990122D54B524201F05F
:1020D0003BFD002800D0B9E022982399002200237C
:1020E00001F032FD002800D0F1E1229E239F8023E1
:1020F000269ADB001A400D92269A1A4201D1062335
:1021000024938023269A1B011A403B00934609968C
:10211000334300D0B3E0002A00D0C2E10023002402
:102120000A930B94002304250993259B0024AB42BA
:1021300000D95C1B0223269A1A400C92269A13425D
:1021400003D06B426B415B421C40099B002B07D0C4
:102150000A9A0B9B3000390001F095FC06000F0035
:10216000229823990022002301F0EEFC002803D0DE
:10217000802109067B181F00269AAA4B009601971A
:102180001340089E0493249B039402934246330019
:102190004946504600F0AAF90400002D67D02020DF
:1021A000269A4946024013005A4253415B42621C40
:1021B00018400A92330022004530D047099A6F1E1A
:1021C000D317D4185C40D30F9B46002501E0202D87
:1021D00013D008AA94461F23200063440A21013526
:1021E0005E1901F0FBF93031317020000A2101F055
:1021F000F5F926000400092EE9D8052306930023EB
:1022000004930A3303935B46089E029310AB0A9A29
:10221000009349463300504605970195FFF720FE8D
:102220000C9A0400002A22D04246851A259AAA4216
:102230001DD9B04657461600220043464946202085
:102240000135B8470134AE42F6D810E0269B42462D
:102250000493259B49460393249B50460293229B5B
:10226000239C00930194089B00F040F90400200097
:1022700019B0F0BCBB46B246A946A046F0BD6A4BB9
:1022800078009C46400D604401F084FC674A684B2E
:1022900001F017FC674A684B01F0ECFB674A3B030F
:1022A0001B0B1A4304000D0009981100644B002217
:1022B00001F0D7FB634A644B01F003FC02000B0002
:1022C0002000290001F0D6FB01F07CFC099001F010
:1022D00061FC5E4A5E4B04000D0001F0F2FB00223F
:1022E0005C4B01F0C7FB01F06DFC5B4A5B4B2900C6
:1022F0000C90200001F0E5FB04000C980D0001F0AB
:1023000049FC574A574B01F0DCFB02000B00200050
:10231000290001F0A6FB04000D0002000B000A9446
:102320000B9501F0CEFB04000D000A980B990200FA
:102330000B0001F09FFB00220E900F914A4B2000F2
:10234000290001F0A0FB0022484B01F093FB0200A2
:102350000B002000290001F096FB0022444B01F005
:1023600089FB02000B002000290001F08CFB0A9A77
:102370000B9B0D0080210400C905002001F071FBBA
:1023800002000B002000290001F074FB02000B008A
:102390000E980F9901F077FB0022284B01F06AFBA1
:1023A000344B0C9C9C4664442305002201F089FBBD
:1023B00004000D0002000B00300039000A940B9558
:1023C00001F0C2FB00285DD123002A00C62509992F
:1023D00063318D42AD4159466D420435002900D12B
:1023E000A3E6134363D030003900234A234B01F0A6
:1023F000B1FB002807D0002230003900204B01F04B
:10240000A3FB002853D1249B002B00D18DE60D9B0C
:102410005A1E9341249AD31A249386E6FFFFEF7F36
:10242000FFFFEFFFFFF7FFFF01FCFFFFFB799F506E
:102430001344D33FB3C8608B288AC63F0000F03FE7
:102440000000F83F61436F63A787D23F71A379090A
:102450004F930A400000E03F1655B5BBB16B0240F8
:10246000EF39FAFE422EE63F00002C4000002440E7
:1024700000001840FF0300002D431CEBE2361A3F1A
:1024800080842E41099B0022013B09932000164BBA
:10249000290001F0F8FA0A00010003000A910B92EA
:1024A00094E7002300240A930B9400230993249AB1
:1024B000099B9A4214DDD31A013B24938023269A68
:1024C000DB001A4300230025269209932DE6802283
:1024D00012069446229B1E00239B63441F0006E6BF
:1024E00000232493EAE7C04600002440F0B54546A7
:1024F000DE464E465746E0B595B08B469046994627
:102500001E9A1F9B0A9019001000209D01F02FFBBE
:10251000002800D0B0E11E981F990122C74B5242FB
:1025200001F012FB002800D037E11E981F9901220C
:10253000C34B524201F016FB002800D0A7E01E98C2
:102540001F990022BF4B01F00DFB002800D088E04E
:102550001E981F990022BC4B01F0F6FA002800D00B
:102560007FE01E981F990022002301F0EDFA002859
:1025700000D0FAE000230B938023229C229ADB00F8
:102580001C401A4200D102E1092D00D87EE106A9C3
:102590008C462C00172200233021093C6244013371
:1025A000D154EF1A202B00D132E1A342F7D10022FF
:1025B000A44B069207931E981F9901F003FB050098
:1025C00001F0E8FA02000B001E981F9901F049FA89
:1025D000069A079B01F075FA0890099101F016FB25
:1025E000060001F0D3FA02000B000898099901F0E7
:1025F00038FA0022954B0890099101F0B3FA0028AF
:1026000000D1D2E00136300001F0C0FA069A079BF3
:1026100001F0A0FA002801D000260135AA46002FBB
:1026200000D098E0280001F0B5FA02000B001E98D7
:102630001F9901F016FA854B002206000F0001F0E9
:1026400083FA0CAB9A46002845D1002230003900AD
:102650007E4B01F087FA00283DD1EB073BD50135D1
:1026600039E0229B42460493219B594603930A98E2
:102670001E9B1F9C0295009301944B46FFF704FD9F
:1026800015B0F0BCBB46B246A946A046F0BD229BA1
:102690005B0767D403226E4B229901920391219923
:1026A0000291009342464B4659460A98FFF790FB29
:1026B000E6E706AA94461723280063440A2101345A
:1026C0001E1900F063FF3031280031700A2100F03C
:1026D0005DFF051E76D0202CEBD10323229A1340F8
:1026E000012B1DD1219B002B1AD00B9B002B00D05E
:1026F000BBE0229A0C33134200D0B6E0219BA342E8
:1027000000D887E006AB9C4617223023624404E0E1
:102710002199013413558C4259D0202CF8D1202412
:10272000229B01940393219B02935346B9E706AA87
:10273000944617230A216344300001341D1900F028
:102740004DFF3031297030000A21013F00F046FF73
:10275000092E46D90600202CE9D155460CAB202481
:102760009A46B8E704223B4B96E71E9A1F9B00202F
:10277000002101F076F901230B938023229C229AF9
:10278000DB001E901F911C401A4200D0FCE6002284
:10279000314B0627069207930DE7229B0393219B5B
:1027A0000293042301932D4B7BE70022089809999B
:1027B000264B01F0C9F9002800D02FE7002E4FD199
:1027C00001362BE70323229A1340012B68D0202CDB
:1027D000A6D00B9B002B1FD02D235246135501343E
:1027E0009EE75546202CB9D030223B19002F4BD004
:1027F000172006A9013409180A55202CAED09C4296
:10280000F6D10CAA92462E2251465C1CCA5462E7AD
:102810002024CCE6202C83D0229B5B0708D4229B6B
:102820001B0700D47CE7202352461355013477E779
:102830002B2352461355013472E7C046FFFFEFFFCA
:10284000FFFFEF7F65CDCD4165CDCDC10000E03FFD
:10285000A47300109C73001080842E41AC73001090
:10286000F30700D4DAE60136D8E6219B013B219339
:10287000A34200D946E7AAE7229B0393219B029338
:1028800003230193084B0CE72300BAE7074BEA0048
:102890009B185C681B682F000693079400248AE647
:1028A000219B002B93D020E7A873001050750010D7
:1028B000F0B54546DE4657464E46E0B5A1B01D0090
:1028C0002A9B90460B93D04AD04B83468A461A6087
:1028D000002900D1A4E1002328789946002800D1DE
:1028E000A6E1CB4B5E460993CA4B4C46D3464746BE
:1028F0000D930AE0631C984622003B005946B047FE
:1029000044462878002800D1CDE001352528F1D1B2
:1029100008239A46043B9946023B9846013B002215
:102920009C460C942878691C0300203BDBB2102BDA
:1029300003D8099C9B00E3589F460300303B0C9C46
:102940000A92092B7FD9002398462A2800D1C1E09A
:1029500000239A462E2800D190E00300683BDBB2AA
:10296000122B1ED8AC4A9B00D3589F4663460D00DD
:102970001A43D7E743460D001A43D3E74B460D00F1
:102980001A43CFE710230D001A43CBE753460D003F
:102990001A43C7E780235B000A9A68781A430A92B1
:1029A00001310D0067280AD82428A3D90300253B4C
:1029B000DBB2422B9ED80D9A9B00D3589F46010054
:1029C0006939C9B20F2995D801238B409C46934B96
:1029D000994663464A4613400C9362464B461A4258
:1029E00000D05EE20A2900D124E1072982D10B9BA5
:1029F00002CB9846002900D19BE121200A9A02438C
:102A0000914610AB9C461F220F23404662440B9513
:102A10009C46A04615000C9B0A9002E0202B0CD08F
:102A2000110064460C4020003730092C00D80738CC
:102A30000133E8540A090F29F0D80C930A9B444645
:102A40000B9D984685E1002398460A9B45469C4687
:102A500000E00131AB005B195B001D180878303DC8
:102A60000300303B092BF4D963460A930023A846A0
:102A70009A460D0001312E2800D06EE780200A9A78
:102A8000C00002430A9230225242944668780B00FA
:102A900084446246092A00D82EE12A2800D13DE16B
:102AA0000D00013159E7DA46A146B346B846C8459C
:102AB00003D801235B424344994643464A46514664
:102AC0000020D847200021B0F0BCBB46B246A94642
:102AD000A046F0BD0B9B04CB9046002A04DB68782F
:102AE0000B930D00013133E70A9A283802430A920A
:102AF00042465242687890460D000B93013127E719
:102B0000672800D1C7E1472800D114E2452800D149
:102B100016E20A9A0721049242460B9B039207335E
:102B200052468B43190002920CC930000092019367
:102B30000B9122003B005946FFF7A6FA0400E0E69D
:102B400080239B0028E76878682800D11BE2802357
:102B50000A9A01311A430A9223E768786C2800D157
:102B600009E280230A9A5B001A430A92013118E7AE
:102B7000462800D18AE10A9A0721049242460B9B1B
:102B80000392073352468B43190002920CC930005E
:102B9000009201930B9122003B005946FFF7A6FCDF
:102BA0000400AEE6631C984622003B0059462520EF
:102BB000B0474446A5E60B9B04330C93631C99462F
:102BC0000A9B9A0700D4E7E10B9B2200187859462C
:102BD0003B00B04743464444012B00D8B8E22B00E9
:102BE000B84625005F464C469946220043460134CC
:102BF00039002020B047AC42F7D12C00BB464D46EF
:102C000047460C9B0B937CE6B1280010BC150020B6
:102C1000B473001044740010F87300104190000069
:102C2000DC4B28789B4600239946002800D058E6C4
:102C300000243CE70B9B02CB12930B789C461800B8
:102C40005346002B00D09CE0002812D002235B42A8
:102C50000133994689444A460B008946110001E038
:102C60008B4203D05A780133002AF9D149465B1AC6
:102C70000C938023DB0099460A9A13400B934B4632
:102C80001A4204D00C9B534501D953460C9302239E
:102C900099460A9A13400A934B46134200D1B5E174
:102CA0006346002B00D197E10B9B002B00D14CE138
:102CB000D1460B1B9A462B00A1444D462200B94633
:102CC0005F469B4609E04B463900541CB0475346CB
:102CD000185D002800D158E122009542F3D15B46EF
:102CE000BB464F46A9461D004C460A9B002B00D010
:102CF00072E1129B0B9304E655460A9AA900491902
:102D0000490001330D181878303D01003039092988
:102D1000F4D9AA460A921D00591C1EE60B9BA878FE
:102D200004CB0235D143C9170A4092460B93691C64
:102D300013E60A9B10211A008A4310001131084340
:102D4000814680201A00C00002401100034200D1D9
:102D500057E64B46082206935346059208320392E3
:102D6000002204930C9B0292019318AB2200009363
:102D700059463B003000FFF773F8434604000B93BD
:102D8000BFE5002800D174E75346013B60E76228A5
:102D900000D1DFE1582800D1ECE10A9980230A0034
:102DA000DB001A4010000A00194200D1BDE11123D6
:102DB0009A430C920C9A802311009B0019408C4678
:102DC0001A4200D046E1802311005B001940894679
:102DD0000B9904310A911A4200D08FE213005B066E
:102DE00000D59EE113001B0600D426E30B9B0022B6
:102DF0009B5ED9175A184A4092B2D90F0B91002BFB
:102E000000D177E2100010AA944642461F23129286
:102E100052466344AA4614944D460400B946B0464F
:102E20001F00139201E0202D0FD020000A2100F096
:102E3000D5FB01357E193031317020000A2100F0B8
:102E4000CDFB26000400092EEDD8129B464698467D
:102E5000139B4F46A94655469A46149C0C9B0693D5
:102E600043460593534604930A2303930B9B029313
:102E70004B46019318AB2200009359463B003000AB
:102E8000FEF7EEFF0A9B04000B933AE520230A9A13
:102E90001A430A926FE680230A9A1B011A430A9288
:102EA00037E6782800D0AFE10A9880230200DB00E3
:102EB0001A4011000200184200D1D0E20D239A43BB
:102EC000100003330A93802302009B001A409446AB
:102ED000184200D0ACE1802302005B001A4091460A
:102EE0000B9A04320C92184200D04AE2430600D4F6
:102EF00093E20B9B1B780893002B00D04BE110331F
:102F00009843002900D146E10023994643460593A2
:102F1000534604930A9B06900393002302934B4667
:102F2000019318AB2200009359463B003000FEF796
:102F300097FF040065E680230A9A1B011A430A9250
:102F400020230A9A1A430A92E3E50B1B9A460C9B2C
:102F500099462B005D469B4622003B002900B04766
:102F600053460134185D0028F6D14B460C935B465E
:102F7000AB461D00B9E6C0239B000A9AA8781A4305
:102F80000A92E91C0DE5C023F7E75D46BB464F46B4
:102F9000ABE6C046CD1D00104346012B00D8D1E062
:102FA000631E4344B9461D005F46A2468B4622007D
:102FB0004B46013439002020B047AC42F7D15D4682
:102FC000BB464F46A14654460B9B4A461878594685
:102FD0003B004444B04714E60C9BA146984500D8FA
:102FE00087E64444E41A2B00B84625005F464C4669
:102FF000994622004346013439002020B047AC42B4
:10300000F7D12C00BB464D46474672E60C988045EA
:1030100000D81CE243461A19131A99462B004D4654
:10302000B9465F469B460C9122004B46013439005D
:103030002020B047AC42F7D143460C9901330C93A2
:103040000B785D469C46BB464F466046002800D044
:103050002AE64EE607220B9B073393430132944640
:103060009C4462460B920CCBD90F0A911100194374
:103070005FD0D9171191109151400E91119959407B
:103080000F910E980F99109A119B801A99410E90EA
:103090000F9110AA00239446424699461292524636
:1030A0001F336344B046AA464E461494B9460E9C5C
:1030B0000F9D1F00139201E0202E10D02000290048
:1030C0000A22002300F0CCFA013630322B00BA5528
:1030D0000D0022000400002BEED1092AECD8129B2F
:1030E0004F46B14646469846139B0E940F9555465B
:1030F0009A46149C0C9B06934346059353460493AF
:103100000A2303930A9B02934B46019318AB2200B8
:10311000009359463B003000FEF7A2FE0400FFF783
:10312000F0FB0B9B1B781A0067E610239A430C9266
:1031300040E6002399460028DCD1002200230E92AD
:103140000F93A6E70B9B2200187859463B00B04727
:103150004C4656E50A9880230200DB001A40110015
:10316000184200D15FE102000D239A430B3B10008F
:103170000A93A8E60A9880230200DB001A40110097
:103180000200184200D166E10D2320209A43033348
:1031900010430A9397E66123820600D54123DBB2F0
:1031A0000A3B0B93434610A91F228C4612935346A9
:1031B0006244AA46149415974C468046B1461700BF
:1031C0000A9E089D139308E03033DBB201343B556F
:1031D000B5420ED3202C0CD005003100280000F0A1
:1031E000FDF9CBB20929EFD90B9A94466344DBB2BF
:1031F000ECE7129B40469846139B4E465546A14627
:103200009A46149C159F81E66F2800D037E10A99F1
:103210000C230A009A43802310000A00DB001A40A6
:1032200011000A9A1A4200D021E108230A934AE6C3
:103230000B9AFA3BFF3B07329A4301339C46944476
:1032400063460B93136852680893134312921A1E35
:1032500005D10023103299469043002941D16122C3
:10326000810600D54122D2B20A3A0C92424600238E
:1032700010A9139252468C46994614921F330A9A0B
:103280006344AA46159417964C469046B946089E44
:103290001F00129D16900AE03032D2B20023013492
:1032A0003A55AB4211D0202C11D006000D004246F9
:1032B00000233000290000F0D3F9D2B2092AEBD95B
:1032C0000C9B9C466244D2B2E8E7B045EBD9139B15
:1032D00055469846149B4F469A46A1461698179E07
:1032E000159C43460593534604930A9B069003930B
:1032F000002308E7002800D0B0E584E50B9B1B689D
:10330000DA0F1100002B00D194E0DA179818504022
:1033100010AA914642461F23129252464B44A046A1
:10332000AA4614970400B14665461F000B911392FC
:1033300001E0202D0FD020000A2100F04FF90135C7
:103340007E193031317020000A2100F047F9260043
:103350000400092EEDD8129B444698460B9BAC46C0
:103360001900139B55464E469A46149F0C9B02919A
:10337000069343460593534604930A2303936346F7
:1033800077E50B9B1B680893002B03D11033984300
:10339000002937D16123820600D54123DBB20A3BE5
:1033A0000B93434610A989461F22129353464A4461
:1033B000AA46B14614941597644680461700089DA6
:1033C0000A9E139308E03033DBB201343B55B5421B
:1033D0000ED3202C0CD005003100280000F0FEF8A0
:1033E000CBB20929EFD90B9A94466344DBB2ECE7E0
:1033F000129B40469846139B55464E469A46A44615
:10340000159F149C43460593534604930A9B0690CC
:10341000039300230293634682E5030613D50B9BB7
:103420001B88089368E502000C239A430A3B1000AE
:103430000A9348E5002899D16AE70B9B1B68D917C6
:103440005A184A40D9E40B9B1B68089354E50300C3
:1034500001330C93F9E520230A9A1A430A920C23AC
:103460000A9A00219A43043310000A932BE50A9B21
:103470000C9308230A930D230C98984323E51023FB
:103480000A9A9A430C9269280AD10A9980230A0061
:10349000DB001A4010000A00194200D18AE486E4D9
:1034A0000A991C230A009A43802310000A00DB00BB
:1034B0001A4011000A9A1A4202D10A230A9302E51D
:1034C0000A230A93D7E7C04600B585B003910121CE
:1034D00002900093034813004A4202A9FFF7E8F95B
:1034E00005B000BD7920001010B5094A030014682A
:1034F00084B0002C08D0012200910648524203A952
:10350000A047012004B010BD00F0CCFF0020F9E777
:10351000BC1500206920001001480421014B184708
:10352000F003002049350010142310B5010018885D
:1035300004331B88984710BD162310B50100188866
:1035400002331B88984710BDF8B54746CE4680B574
:103550000F1E19D0142399460433040000250126B8
:1035600098464B461888434621681B88984701C4F3
:10357000431E9841013540420640AF42F1D1300030
:10358000C0BCB946B046F8BD0126F8E7124A936FB1
:103590009B0815D29066D166002905D0FFE7FFE7AA
:1035A000FFE7516F106F704704B580210906C217FD
:1035B0005140002800D0C84303F06EFE002104BD36
:1035C000F0B5146E556E576F166FFFF7E3FF146674
:1035D000556657671667F0BD000000D0114A936F1B
:1035E0009B0813D210665166002905D0FFE7FFE75C
:1035F000FFE7516F106F704704B5002801D000201D
:10360000C04303F049FE002104BDC046F0B5146E6E
:10361000556E576F166FFFF7E5FF146655665767CF
:103620001667F0BD000000D094464E4A926F920893
:10363000624601D230E0C046F0B54A4EB56F6D0823
:10364000FCD3346E756E776F366F00F025F89446B4
:10365000444A14665566576716676246F0BDC04611
:103660009446404A926F9208624601D258E0C046A2
:10367000F0B53C4EB56F6D08FCD3346E756E776F48
:10368000366F00F04DF89446364A14665566576713
:1036900016676246F0BDC046002B24DB11D000291E
:1036A0003EDA00B5C943404200D1013100F038F89C
:1036B000C943404200D10131DB43524200D10133C2
:1036C00000BD002AEBD1002801D1002905D000203F
:1036D000C90FC90701D1C043410800B503F0D4FDAB
:1036E0000022002300BD00B500290ADBDB43524263
:1036F00000D1013300F014F8C943404200D1013138
:1037000000BDC943404200D10131DB43524200D1E8
:10371000013300F005F8DB43524200D1013300BD14
:10372000002923D1002B18D1002A0CD0BC460D4F04
:1037300038667A6600210023FFE7FFE7FFE77A6F2C
:10374000386F67467047002801D00748010000B570
:1037500003F09AFD0022002300BD02000B000020B0
:1037600000217047000000D0FFFFFFFF002B00D0BA
:10377000BFE0130C28D1002AE7D080B4114F39667E
:103780007A66FFE7FFE730B4040C7B6F396F1B04E8
:1037900023433B667A66FFE7FFE7FFE7C04684B254
:1037A0007B6F3D6F1B0423433B667A66FFE7FFE7B1
:1037B000C04600232C042D0C7A6F386F0019694124
:1037C000B0BC7047000000D0F0B594460025140E40
:1037D00001D112020835140F01D112010435940FE2
:1037E00001D192000235D40F01D152000135D40B22
:1037F0000134254F7C66254C3C660E0C93B2FFE7E6
:10380000FFE7FFE73C6F6643360C7703BE46734322
:10381000DF0B5B04C01AB941130C7343DB18C91AE0
:10382000CE086643360CB64493B273431F0F1B0198
:10383000C01AB941130C73431F0B1B05C01AB941C1
:10384000860D8F023E436643360C092D24DB520A57
:103850007243801A7703460A6643360C16235B1BB5
:10386000DE40DF40BF1964466643821B7046043564
:1038700006330100D940A840C01900D30131A2424B
:1038800006D20023F0BD0000000000D0FFFFFFFFC4
:10389000121B0130F3D3F1E709277F1BFE4064467A
:1038A000A2B27243801A00D20139220C7243130C67
:1038B0001204821A99410B00704604351337010037
:1038C000F940A840801900D30131002B02D1A24257
:1038D0000AD2F0BD013000D30131121BFAD2013BF4
:1038E000F8D1A24200D2F0BD013000D30131121B49
:1038F000F7E7F0B51C0C00D080E00CB400251C0AE2
:1039000004D11B02160E3343120208351C0B04D1DE
:103910001B01160F3343120104359C0B04D19B008D
:10392000960F334392000235DC0B02D192185B41B3
:1039300001351C00971864410134464F7C66464CA3
:103940003C660E0CFFE7FFE7FFE7C0463C6F6643AF
:10395000360C7703BE4697B27743C01B00D20139BD
:10396000C01B00D201399FB27743C91BC91B170C7A
:1039700077437E04FF0B801BB941CE086643360CAB
:103980000C2D33DBB644120B1F053A431B0B97B2C9
:103990007743C01B00D201399FB27743C91B170C74
:1039A00077433E043F0C801BB941860D8F023E4396
:1039B000664329277F1BFE400C3D7746AF40BF1969
:1039C00030BCA2B2ABB272437343801A9941220C4D
:1039D0007243130C1204801A994102000B00013744
:1039E000001BA941F9D2781E0021F0BD0C277F1BD6
:1039F000FE4077467F0BAF40FF19E0E700245D1CD7
:103A000007D0144F7D663966FFE7FFE7FFE7FFE762
:103A10003C6F95B29EB265436643401BB141150CA5
:103A20001E0C6543664336042F0C3E432D04401B99
:103A3000B141994204D202000B0020000021F0BDE8
:103A400001D19042F7D3801A994101349942F2D3BF
:103A5000F6E70000000000D0FFFFFFFF48404140B4
:103A6000484018B41B4B5B68FC46019308BD04DF5B
:103A7000EF3C001018B4174B1B68FC46019308BDBF
:103A800000DFF93C00109446134A926F920809D265
:103A9000624618B40F4BDB68FC46019308BD0CDF8F
:103AA000B13F00100C4AF0B5146E556E576F166F8B
:103AB0006246FFF7EEFF084A1466556657671667B9
:103AC000F0BD18B4034B9B68FC46019308BD08DFAA
:103AD000553E0010D8090020000000D0FFB550402E
:103AE0004240504059404B40594000E0FFB5154F0F
:103AF0004C00640D03D0BC4204D10C0314D8002048
:103B0000090D09055C00640D03D0BC4204D11C03FF
:103B10000AD800221B0D1B0501264B4009D44B403F
:103B200003D58B4200D18242FFBD9942FCD1904225
:103B3000FFBD0B43DB1803431343F5D0C9434918BA
:103B4000FFBD0000FF07000000B5FFF7CFFF804179
:103B500000BDC04600B5FFF7C1FF01D9002000BD80
:103B6000012000BD00B5FFF7B9FF804100BD012075
:103B700040054A00121804D85A00121801D8002033
:103B80007047012070470020704700000021002886
:103B900005D17047C1174840401AFAD0C90713B57C
:103BA000064B1B6898470CBC441CA2401005120B26
:103BB0000349091B09051943114310BDF8150020DD
:103BC0001F04000010B54C00620D8023D218DB00EA
:103BD000D21A5B057E2A10DD9E3A13DACC17090350
:103BE000490819435242D140640001341532202A59
:103BF00005DAD0400843604310BD002010BD0846E0
:103C0000604310BDC80FC018013810BD18B4044B74
:103C10005B6AFC46019308BD24DF6141001000008F
:103C2000D8090020132370B51D78012D15D010DDA3
:103C30001D48FFF781FC1D4C01008022200000F090
:103C40005DFB022D2DD01A48FFF76EFC194B186052
:103C500070BD194B154CA364F5E7174B134C23604B
:103C60006360A360E36023616361A361E361236236
:103C70006362A362E36223636363A363E363236416
:103C80006364A364E36423656365A365E3652366F6
:103C90006366A366E36623676367A367E367A3645A
:103CA000D1E7054BA364CEE753440000D8090020B8
:103CB0004C330000F8150020BD3C001007B56046ED
:103CC00001880A0A0230DF2AFAD1C9B2820804D375
:103CD000028840880004104300E00068014A505008
:103CE000039007BDD80900200FB403BC0CBCF0B58D
:103CF0000124E407634000E0F0B50C0DCF0F661E11
:103D00003605891B640503D3C943404200D3013102
:103D1000640D03D0661CF60A07D0E41B00207F0068
:103D2000791C89078912803C24031D0DDF0F6E1E4C
:103D300036059B1B6D0503D3DB43524200D3013391
:103D40006D0D03D06E1CF60A07D0ED1B00227F001C
:103D50007B1C9B079B12803D2D032F1B661B58D499
:103D6000A446202E46DA20371400BC401D00BD407A
:103D7000F24033412A4380185941CB0F05D0C94343
:103D8000C043002264425041514162464D0D28D14A
:103D90000D0D07D100281FD0241940414941013A97
:103DA0000D0DF9D0640006D3013000D30131002C91
:103DB00001D140084000013A0BD4941CE40A04D11C
:103DC00012051144DB071944F0BDD907204B1943F4
:103DD00000E0D9070020F0BD0029DDD1002CDBD1A7
:103DE000F0BD0132C6074008CD0728434908002E20
:103DF000E1D0D9E73C2E29DA203E40371400BC4000
:103E000000D00124F24014431A00BB401C43D317D6
:103E1000ACE7AC46202F08DA20360400B4400D0091
:103E2000B540F84039412843A5E73C2F0CDA203F44
:103E300040360400B44000D00124F8400443080098
:103E4000B1400C43C117EAE710001900002494E7C1
:103E50000000F07FF0B50C0D661E3605891BE60AE2
:103E60006405640D02D0651CED0A04D00020012118
:103E70000905803C2403A4461C0D671E3F05DB1B7F
:103E8000E70A6405640D02D0651CED0A04D0002227
:103E900001231B05803C24037740644497B484B21B
:103EA00096B27443070C7E43150C6F4380B268438F
:103EB000361802D3012000043F183004350C0019D5
:103EC0007D41844688B29AB250430C0C62431F0C69
:103ED0007C438EB27E43921902D301263604A41984
:103EE0001604170C3618674101BC81B29AB25143CF
:103EF000040C62431B0C5C4380B25843121802D37B
:103F00000120000424181004130C401863412D18DC
:103F10005E410020474106BC88B293B258430C0C66
:103F20006343120C544389B251435B1802D30121FD
:103F30000904641819041A0C091862416D185641D5
:103F40000020474118BCF902720D1143F0026A0DBE
:103F50001043ED020A0D03D16D1940414941013B67
:103F6000124E9B1B7600B3420ED26D0007D3013078
:103F7000002671416646354301D1400840001B05CB
:103F8000C918E4072144F0BD0BDA013306D1013032
:103F900004D101314F0D01D04908F2E7E1070020BB
:103FA000F0BD013631050020EBE70000FF03000003
:103FB000F0B51C0D671E3F05DB1BE70A6405640DA9
:103FC00002D0661CF60A04D0002201231B05803CA7
:103FD0002403D0252D060026F6432E661E096E66A4
:103FE000CE0FF619B44649004F0D02D07E1CF60ADA
:103FF00003D000200021403F3F033E1BB600B444E5
:10400000013F7F05C91B49082E6F013676089C02C7
:10401000950D25437543ED137543AD1301356D10B3
:10402000F603761B0CB4CC02450D2C43A2B2B3B2FE
:104030005A43270C7B43350C6F43A4B26C431B19C6
:1040400002D3012424043F191C041D0CA4187D4133
:1040500024196D41009A91B2ACB26143170C7C43B4
:104060002B0C5F4392B25A43A41802D301221204CC
:10407000BF182204230C52187B41019C6C431B196E
:10408000520ED9010A434401A01A81B2B2B251437F
:1040900003145A43360C734387B27743D617D219A9
:1040A00000277E4136049B191704160C7F185E41C9
:1040B0007316ED18F301002680337541A90F06D160
:1040C0006400690AE8055B0A184309D22FE004225C
:1040D000944480337541A90AA8059B0A184326D346
:1040E000404149412404009A019B0D005543641B43
:1040F0004343E41A95B286B27543170C7E43030C12
:104100005F4392B25A43B61802D301221204BF1879
:104110003204330C52197B4152429C41002C02D490
:104120000022013051414008CA071043490802B03B
:104130006246D7079210084BD218084B9A4203D216
:1041400012058918C919F0BD0020002A01DC3900C8
:10415000F0BD01331905F5E7FD030000FE0700007F
:10416000002200B5203200F004F8080000BD000075
:1041700000220B150AD410B5944600F031F814143F
:10418000013400DA0021CB17144C20470020002115
:1041900070476244343A0CD40C2A07DA0400914088
:1041A000904052422032D440214310BDD843D943DD
:1041B00010BD203207D40C469440524220321141A7
:1041C000D040204310BD0800C917203203D452420A
:1041D0002032104110BD1800190010BD934100108D
:1041E0000A0DCC0F531E1B05C91A520503D3C94330
:1041F000404200D30131520D03D0531CDB0A07D0DB
:10420000121B00206400611C89078912803A120386
:10421000014BD21A70470000FF0300005143434393
:10422000C9188C46110C83B24B4310B4040C614383
:1042300092B280B2504362431C041B0C001910BCA4
:1042400059411304120CC0185141614470470000D9
:10425000132310B512481C78FFF76EF90100012CEA
:104260000AD003DD80220F4800F048F80E48FFF71F
:104270005BF90E4B186010BD0A4C5422200000F070
:104280003DF80B4B6365A365E36523666366A36630
:10429000E36623676367A367E3672362E361E5E798
:1042A00053460000D80A00204C330000F8150020C7
:1042B000B542001007B5604601880A0A0230DF2ABD
:1042C000FAD1C9B2820804D302884088000410439E
:1042D00000E00068014A5050039007BDD80A002052
:1042E00001480421014B1847000400204935001003
:1042F000014B1B681847000000040020014B5B685D
:104300001847000000040020F0B5C64600B5437C05
:1043100007000D001600002B38D0002A2EDD0021EA
:104320006A1E90466A5C037C4C1C00200A2A0CD052
:10433000A64216D043461B5D21000D3B5A42534115
:104340006A5CDBB24C1C0A2AF2D1002BF0D181420C
:1043500017DC022110483B689847A64207D020008E
:10436000E8E7864203DD311A3B6828189847AD1903
:10437000013D2B780D3B5A4253413B7480BCB846FB
:10438000F0BD091A3B6828189847E2E70368110056
:1043900028009847F2E7C04608760010F0B5C646F8
:1043A0000B6806000C0000B5802B06D05A1C22605A
:1043B000E418267180BCB846F0BD0F4B1D68002D77
:1043C00016D00B1D98460D4F02E0ED68002D0FD062
:1043D0002B68002BF9D03B68002B01D0AB42F4D105
:1043E000280041462268FFF78FFFED68002DEFD1CE
:1043F00001220023DBE7C046B4110020B8110020E1
:10440000F0B5CE46474680B583B06B46DE1CD02360
:1044100030701B061C68204B804601A91800994685
:1044200002F042FF071E20D01C4B1C68002C29D034
:104430001B4D02E0E468002C0FD02368002BF9D05C
:104440002B68002B01D0A342F4D1200001223100BF
:10445000FFF75AFFE468002CEFD1002F12D140463D
:1044600003B0C0BCB946B046F0BD019B64B29C42EB
:104470000CD0484602F028FF084B1C68002C01D0E5
:104480000127D5E7484602F0F7FEE8E7034B1C6832
:10449000002CCDD1E3E7C04684080020B4110020F1
:1044A000B8110020F0B5DE4645464E465746E0B509
:1044B00083B0060002F042FED0231B061C68304B7E
:1044C000050001A918009B4602F0EEFE8046002878
:1044D0003DD02C4B1C689A46002C47D00A232A4F0B
:1044E000994602E0E468002C17D02368002BF9D02D
:1044F0003B68002B01D0A342F4D120002A003100F8
:10450000FFF702FF6B464A4620001A7101A90122FB
:10451000FFF7FAFEE468002CE7D14346002B25D1D3
:1045200053461C68002C06D06368002B0BD09847BC
:10453000E468002CF8D1280003B0F0BCBB46B246BA
:10454000A946A046F0BDE468002CEDD1F3E7019B3D
:1045500064B29C420ED0584602F0B6FE094B1C686D
:104560009A46002C02D001239846B7E7584602F03D
:1045700083FED5E7034B1C689A46002CAED1DAE7E0
:1045800084080020B4110020B81100200A4A1368E2
:10459000002B05D10CE01A00DB680C32002B07D091
:1045A0009842F8D1002902D1C3681360C1607047F6
:1045B0000029FCD01060FAE7B4110020F0B547469E
:1045C000CE46D02380B51B061F682D4BA3B0040038
:1045D0000D00180001A9984602F066FE061E06D1DD
:1045E000019B7FB29F4203D0404602F06DFE012640
:1045F0008422002101A8FFF77BFE2B002200214826
:1046000001A9FEF761FF019B0700002B14D11E4B8F
:104610001C68002C06D06368002B0BD09847E46818
:10462000002CF8D1002E25D1380023B0C0BCB946EB
:10463000B046F0BDE468ECE7134B1D689946002DC9
:104640001CD0124C02E0ED68002D0FD02B68002B1F
:10465000F9D02368002B01D0AB42F4D12800019A95
:1046600002A9FFF751FEED68002DEFD14B460195F1
:104670001C68CEE7404602F0FFFDD5E70195D1E783
:10468000840800209D430010B4110020B8110020C0
:104690000FB400B583B004A901C90191FFF78EFFE3
:1046A00003B008BC04B0184710B500F03DF910BDC8
:1046B0007047C0460022014B1A7070473316002025
:1046C0004B790020FF2B0BD18B79002B08D1CB79B4
:1046D000012B05D1082A03D9024B8A7809301A70B8
:1046E0007047C046331600200120704770B500297E
:1046F00013D114495379107909781B020343002020
:10470000994200D070BD5378012B08D0022BF9D10B
:10471000642200210020FDF7F7FA0120F2E79478E7
:10472000D278050012021443D20502D5620A9340E2
:104730001D000548FEF7F8FE7F21030021402800F8
:104740009847C046331600205542000001230370ED
:10475000004870470C7600104B780A781B02134310
:104760008A7810B512041A43CB781B06134396229D
:10477000D200934200D010BD0348FEF7D5FE0021C1
:10478000030008009847C0465542000070B5184C19
:1047900082B006000D00200001A902F085FD00286E
:1047A00008D1D0231B06019A1B689A421CD0200016
:1047B00002F08AFD002001F0A5FD002807D10325A5
:1047C0006D42200002F058FD280002B070BD0020AC
:1047D00001F0B0FD0028F2D02A003100002001F0E5
:1047E000B5FD051EEBD0ECE703256D42ECE7C046B6
:1047F00000160020F0B5DE464E465746C0B5344B95
:1048000082B081460D00180001A99B4602F04CFDC4
:10481000002808D1D0231B06019A1B689A4250D069
:10482000584602F051FD002001F06CFD002840D0F8
:104830000024002D42DD274B9A4612E04B46002013
:10484000191901F0F7FD060000F0EAFD002001F063
:10485000B5FDFCF70DFD534618605960A419AC4234
:104860002CDA002001F000FE2E1B0200B04200DD19
:104870003200002AE2D100F0D3FD002001F09EFDBD
:10488000002001F03FFD002818D0002001F0ECFDD1
:104890000028E4D1FCF7ECFC002753460E4E1A68C2
:1048A0005B6892197B41994208D8D8D19042D6D9F9
:1048B00004E000200021074B18605960584602F0C0
:1048C000DBFC02B0E0BCBB46B246A946F0BDC04628
:1048D00000160020D009002020A1070010B5044BCD
:1048E0001878FBF739FEFA200021800010BDC04681
:1048F0003416002010B5024B1878FBF72DFE10BDC2
:104900003416002010B5074C0021200002F0CCFC2A
:10491000002800D110BD00F083FD200002F0ACFCA7
:10492000F8E7C04600160020F0B5244B85B01B7890
:1049300001F07CFF2248FCF771FF0120FCF79EF894
:10494000FF23204C204920701840FBF72BFE2078D5
:104950000121FBF7EFFD0520FBF706FE041E0CD03E
:10496000002205201949FBF747FE01211848FFF7EF
:104970000DFE0124200005B0F0BDFCF7EBFA0500A8
:10498000FCF776FCFA2206000F0000239200921931
:104990007B4199420ED80BD0012102910021019157
:1049A0000C4928000091FCF7D9FA0028E2D0DCE796
:1049B0009042F1D901225242D317EDE7307800102E
:1049C000001600203416002005490010F54800109C
:1049D00010040020DD48001000487047DC7600100D
:1049E000004870478876001010B504001748037817
:1049F000002B20D0002C06D1154B16484380063BD7
:104A0000FF3B038010BD052C19D8134BA400E058C0
:104A100012490123013804E001330A800231142BCA
:104A20000FD0C25C002AF7D1C022DBB25B0092003B
:104A300008481343E5E7112102F090F9DAE7002076
:104A4000E0E7CA2303489B00DBE7C04618160020B6
:104A5000090400008C110020707600108E110020D7
:104A6000F0B5982357464546DE464E46674AE0B5C0
:104A7000D75880253C006D0285B02C40883B2F42E2
:104A80000ED001222321624B00205A546149DA7072
:104A900001F0FCF980222C005F4B92021A655F4BFB
:104AA000FA0617D480235B011F424BD18023DB0120
:104AB0001F4200D080E080231B021F4200D089E00B
:104AC000BC4200D09DE005B0F0BCBB46B246A94652
:104AD000A046F0BD4D4A926D9046002A2DD04E4A18
:104AE0000024934601229146494A012692464246B5
:104AF0005146B8469A461700039104E00134760007
:104B0000E4B2202C17D03742F8D05B469E654B4666
:104B10006508A3436D00ED18039B6D019C46654439
:104B2000280000F00BFB00285FD10134B743E4B24A
:104B30007600002FE5D1474653461C0080235B01D9
:104B40001F42B3D01C430023304A00211360314A76
:104B500033489360D360136153619361D3611362EF
:104B600053629362D362136353639363D363136497
:104B700053649364D364136553659365D365136677
:104B800053669366D366136753679367D367F022C0
:104B90009200FFF7ADFB234B234A00211A6000204F
:104BA000012201F047F980221B4B12031A65802372
:104BB000DB011F4200D17EE70122042100201C43BB
:104BC00001F0A6F81022144B1A6580231B021F4225
:104BD00000D175E70122052100201C4301F098F85F
:104BE00080220D4B12011A656AE74B46AA8AA97802
:104BF00000200093002301F071F9280000F0DAF999
:104C000093E7210009487940FCF7AAFE0000115003
:104C1000BC110020000010500030115010000100A5
:104C2000FC110020C415002080011050F076001007
:104C300010B501210520FBF77DFC10BD10B5002249
:104C40000021024800F0DEF910BDC046DC11002052
:104C50008022024B5202DA647047C0460020115095
:104C6000F0B5C64600B5060000F07EF90C232E4DC7
:104C70000520AB672D49FBF795FC402398462C4C4B
:104C8000402200212000FFF733FB43460127A38386
:104C900021210023274A6770A260136063545F31AB
:104CA00061844146A18702396354234A23496360E2
:104CB000E260A1620B60E262214A636220009360BD
:104CC000D360136153619361D36113625362936242
:104CD000D362136353639363D36313645364936422
:104CE000D364136553659365D36513665366936602
:104CF000D366136753679367D367F022002192004E
:104D00004030FFF7F5FA0F4B0F4A30001A6080234E
:104D10009B052F64EB6490230C4AEA50FFF798FF41
:104D200080BCB846F0BDC04600001150614A00107A
:104D3000BC11002084001050000110508000105061
:104D400000001050C41500208001105010D0010048
:104D50000B785B0602D14B78052B00D070478A7820
:104D6000014B1A60FAE7C04600001150F0B5CE467C
:104D70004746072380B548798E780A790340C8787A
:104D80007F21800731401B02F40913434F00820F3B
:104D9000944691462A4D3A195201AA189670012656
:104DA00066405670604600269383D6709077CA009E
:104DB000012C29D023488446880162448446AC44AF
:104DC000604682601660002929D01F4AC9009046BB
:104DD000414441603F223F3393434A46022A00D177
:104DE0005B001A493F190A687F01D3180B60184B02
:104DF000ED195340EA604A469006184380236A68DA
:104E00001B060343136010E0124884468801624485
:104E10008446AC4460468262166000290AD10023B1
:104E200064012C1963600C4BE3600120C0BCB946DF
:104E3000B046F0BD064AC900904641444162C9E708
:104E4000BC1100208400105004001050C415002034
:104E50000000105080001050000110500022154B2F
:104E600010B59A60DA601A615A619A61DA611A6261
:104E70005A629A62DA621A635A639A63DA631A644C
:104E80005A649A64DA641A655A659A65DA651A662C
:104E90005A669A66DA661A675A679A67DA67F0326C
:104EA000920000210448FFF723FA044B044A1A60D9
:104EB00010BDC04600001050FC110020C415002099
:104EC0008001105010B57F200C0020404000E40904
:104ED000110000191A00034B4001C01800F092F8AD
:104EE000012010BDBC1100207F23180010B5084020
:104EF000CA090B4203D107497D3B9B1A8B664000D0
:104F000080188022044B40010021C018120100F0DB
:104F100057F810BD00201150BC1100207F22130053
:104F200010B50B400A4200D110BDC9095B005B18E7
:104F300004485B01C018002300220349C37000F03D
:104F40003FF8F1E7BC110020FFF7FFFF7F21C20906
:104F5000034B9200014010B5D2580248FCF700FD07
:104F6000240400200477001080220D4B520410B559
:104F70001A600C4B0C491A6010008B689843FBD1E7
:104F80000A4C9C2200212000FFF7B2F98022002168
:104F900052010748FFF7ACF90923636710BDC0460B
:104FA00000E0004000F0004000C000400000115050
:104FB0000000105000230374438283828361704792
:104FC00010B58368002901D01C682140002A11D047
:104FD0008024E400114322420CD01A6822420BD1F3
:104FE000074A0A401A60FFE7FFE7FFE7FFE7FFE72E
:104FF000FFE78368196010BD8078FFF7A7FFC04600
:10500000FFFBFFFFF0B5C646002300B583820133E6
:105010000374436804001F68838B81611E1C9342E4
:1050200000D9161C8020B6B2921B93B2E278C00061
:10503000304315008446681E854160466D03054374
:1050400001204240E27062786382002A50D0002B37
:105050002CD0802252011543344A126C920743D55A
:10506000A28B111C9A4200D9191C8AB28021C90056
:1050700011439B1A9046E2789BB21600701E86413F
:1050800076030E4301214A40E27062786382002A6F
:105090003AD0002B02D18023DB011E43A023244AF7
:1050A00036043A40DB053543134309E0A023DB0116
:1050B0001D431E4B1B6C80231E4A9B053A40134325
:1050C00062681360A26813685B052BD41A4B2B40EF
:1050D0001360FFE7FFE7FFE7FFE7FFE7FFE7A368EE
:1050E0001D6080BCB846F0BDA278D209B8D1E2E715
:1050F0003200E068FFF702F9A3699B19A3618023DE
:105100001B021D43638AA2E7E0684246A169403062
:10511000FFF7F4F8A3694344A36180231B021E43F5
:10512000638AB6E7A078FFF711FFC0460000115070
:10513000FFFFFFDFFFFFFFAFFFFBFFFFF0B5C6463E
:1051400000B5067C0400002E00D1CDE083681A680B
:105150001D684378AD05AD0D002B00D06FE0838A4C
:10516000EB189BB28382A18B62688D4206D200232A
:1051700063821368300080BCB846F0BD12685200EC
:1051800010D58D420ED1A26815686278AD01AD0DC3
:10519000002A00D08CE0EB18A3828D4202D20023BB
:1051A0006382E7E7638A002BE4D062681E1C1768FD
:1051B0008B4200D90E1CE17880220D00681E8541CB
:1051C000B6B2D20032436D03154301229B1B5140FE
:1051D00062789BB26382E170002A5AD0002B3BD0E8
:1051E000802252011543454A126C920702D4A278DC
:1051F000D20936D0A28B111C9A4257D88AB280218C
:10520000C90011439B1A9046E2789BB21600701EAB
:10521000864176030E4301214A40E2706278638240
:10522000002A53D0002B02D18023DB011E43A02390
:10523000334A36043A40DB053543134316E02A006F
:105240008069E168FFF75AF8A38AA269EB189BB25C
:105250005219A382A26186E7A023DB011D43274BDD
:105260001B6C8023274A9B053A40134362681360F6
:10527000A26813685B053ED4234B2B401360FFE705
:10528000FFE7FFE7FFE7FFE7FFE7A36800261D60F2
:1052900070E73200E068A169FFF730F8A3699B1955
:1052A000A36180231B021D43638A97E7191CA5E7AE
:1052B000E1682A004031A069FFF720F8A38AA18B9A
:1052C000EB18A382A3695B19A36166E7E068424615
:1052D000A1694030FFF712F8A3694344A36180231A
:1052E0001B021E43638A9DE77F238178074A084893
:1052F0001940FCF735FBA078FFF728FE000011509D
:10530000FFFFFFDFFFFFFFAFFFFBFFFF24040020D5
:1053100024770010024B5878431E9841C0B2704762
:10532000140F0020024B18784007C00F7047C0468A
:10533000140F0020014B18787047C0462F1600202C
:10534000F0B5C6462D4F05003B7800B5002B03D0C5
:10535000012080BCB846F0BD532200212848FEF74A
:10536000C7FF284C2000FCF759FA274B1C60274C3C
:1053700020001C3CFCF76EFA200001F0A3FC244B3B
:10538000244E1C60244B9846002B2AD03000FFF797
:10539000DDF94246214B002418603378002A25D0DD
:1053A0001E4A90469C420FD301F06AF801343378CC
:1053B000E4B2A342F6D22800FFF752FC2800FFF720
:1053C00037FC01233B70C3E743461A6863001B198F
:1053D000DB009B58984701343378E4B29C42E1D912
:1053E000E9E7424600243378002AD9D101F048F891
:1053F0003378002BDFD043461B68FFDE2F160020DA
:10540000140F0020CC0E0020680F0020480400205C
:105410006C0F00202E1600204D470010DC0B0020E2
:10542000F0B5DE4657464E464546E0B591B001F030
:1054300003FA002800D144E1C24BC34E0193C34B91
:105440000DAC0293C24B00969B46009B1D68EA6917
:10545000EFF3108172B61368002BFCD0BFF35F8F9F
:1054600029622800210001F0A1FAEA692B6ABFF342
:105470005F8F0021116083F31088002800D120E1A4
:105480006378082BE1D8019A9B00D3589F46636844
:10549000002BDAD0A0689847D7E77F222179AB4B61
:1054A0000A405500C8095B191B1818000127303045
:1054B000C578BD43C570C5780337BD43C570002AA4
:1054C00000D105E1A34ADB7C002A06D0A24A12786B
:1054D000934200D287E19B1ADBB2002B00D0F0E0B0
:1054E0009E4DA36862792078A847AEE70122974FC6
:1054F00001213B78042013433B703323FA5C8A4339
:10550000FA54FA5C8243FA540133FA5C8A43FA543F
:10551000FA5C8243FA54237800209A4600F064FE35
:10552000602223791A40602A0DD0402A00D1EBE096
:10553000DB06DB0E012B00D160E1022B00D11BE169
:10554000002B00D1EFE020780021FFF7CDFC802177
:105550002078FFF7C9FC78E7029B1B78DB0700D4B3
:1055600073E77F4B002B00D16FE700E000BF6CE7D3
:10557000764A1378DB0700D467E77A4B002B00D11B
:1055800063E710780007C00F00E000BF5DE7724DD1
:10559000704A00272B78002A00D1B0E06C4A160030
:1055A0009F4205D30137FFB29F4200D94DE7F9D2A0
:1055B0007A003168D219D2008A185269002AF1D0D3
:1055C0002078904701372B78FFB2BB42E8D23CE706
:1055D0002378614D98465F4A0027914646462B78CE
:1055E000002A00D183E0BB425CD8300000F086FF87
:1055F00001372B78FFB2BB42F5D2029D5322002126
:105600002800FEF775FE1022FF215748FEF770FEB6
:1056100028002022FF211330FEF76AFE00F0DAFD99
:10562000524B002B00D110E700E000BF0DE72378BC
:10563000494D484A9846914600272B78002A4DD07C
:10564000434A46469146BB421DD8300000F056FF03
:1056500001372B78FFB2BB42F5D23C4D53220021DB
:105660002800FEF745FE1022FF21E81CFEF740FE51
:1056700028002022FF211330FEF73AFE00F0AAFD99
:105680002379AB70E1E64B461A687B00DB19DB003F
:10569000D3185B683000984701372B78FFB29F42E0
:1056A000D1D9DAE75B461A687B00DB19DB00D31837
:1056B0005B683000984701372B78FFB2BB4292D22B
:1056C0009BE711B0F0BCBB46B246A946A046F0BD70
:1056D000A3686279207800F09BFDB6E6404600F0B2
:1056E0000DFF2B78002BB8D04B465B68FFDE4046A1
:1056F00000F004FF2B78002B00D17EE7F4E7002BAD
:1057000000D1A2E65369FFDE1948002800D11AE74C
:1057100000F06AFD002150460EAA00E000BF0028FC
:1057200000D092E60FE7202A00D19CE0002A00D0AA
:1057300009E76379092B00D905E70E4A9B00D35886
:105740009F46C046587700106C0F0020140F0020B1
:10575000DC0B00204D4700102E160020F1660010D3
:105760000000000000000000170F002000000000F3
:10577000000000007C7700107023217A0B4200D0DB
:10578000E1E60F330B405B00CD09F8184019C67CE9
:10579000B948002806D0B9480078864200D283E094
:1057A000301AC6B2002E7BD1002A00D010E1B44AD4
:1057B0009146022662799046B243012A00D10BE15C
:1057C0004246002A00D0BEE6FB185B193033DB7876
:1057D0000CAA9B07DB0F02321380504602230EA94E
:1057E00000F0A2FC31E6A74A58001268C318DB009B
:1057F000D318002B00D164E71D6972E6237A0F2BC2
:1058000000D9A0E69C4AFB18DB78002A05D09B4A09
:105810001278934263D39B1ADBB2002B00D092E63E
:105820009948974D00F0E0FC00215046EB680EAA25
:105830009847002800D008E66022150023791D4013
:105840001A4200D07FE663790A3B012B00D97AE641
:1058500000F0CAFC63790A2B00D1EAE050460EA999
:1058600000F04CFCF1E5237A0F2B00D96BE6824A5D
:10587000FB18DB78002A06D0804A1278934200D2C7
:10588000CCE09B1ADBB2002B00D05CE67E487C4D5E
:1058900000F0AAFC00215046EB680EAA98473EE7AC
:1058A0009146002A85D04EE67648039070008446E3
:1058B000039866440068F6008146B144002A00D18E
:1058C00077E74B46002B00D13DE6D86800F08CFC12
:1058D0004B4600215046DB680EAA98471FE7694AED
:1058E00059001568CB18DB00ED18002D00D12AE611
:1058F000E86897E7E388012B00D024E608223B788C
:10590000504693430EA93B7000F0F8FB9DE5022042
:1059100039780CAB9A1C8B068908DB0F01400B43CE
:105920005AE7A37998467B78984507D07B78002B77
:1059300000D01AE14346002B00D0ABE0434650466E
:105940000EA97B7000F0DAFB7FE57B780CAA0232AF
:105950001370504601230EA900F0E6FB75E5E388BD
:105960001A0AD8B20F2A00D9EDE548499300CB585E
:105970009F460EA800F03EFC5046A179FFF75EF965
:1059800002223B7813433B705FE5E388012B00D094
:10599000D9E508223B78504613430EA93B7000F02E
:1059A000ADFB52E5022A00D19BE1394B002B00D11F
:1059B000C9E500E000BF0200002A00D1C3E5D378AA
:1059C00091781B020B4350460EA900F0ADFBA6E6F2
:1059D0002B4B2D48994679E7E288002A08D14246A8
:1059E000FB185D193035EB78012A37D09B0729D594
:1059F0004B46002B00D128E5D86800F0F5FB4B465C
:105A00000021DB680EAA50469847002000F0ECFB0E
:105A10003423FB5CDB0700D517E51FE7194A590063
:105A20001568CB18DB00ED18002D00D18BE5E86878
:105A30002EE70CAB9A1C504601230EA9157000F0FE
:105A400073FB02E55046FFF74FFA0222EB7813434F
:105A50000122EB70EB781343EB70C9E79B07C7D5C6
:105A60005046FFF75BFA4246EB78B343EB70EB78B6
:105A70009343EB70BCE7C0464D4700102E16002044
:105A8000E4770010DC0B00200D660010A4770010F6
:105A900000000000581EC0B2FEF7A2FF002800D18F
:105AA00051E543780893022B00D04CE50121C379DE
:105AB0009A115B110A400B4052011B0113433A78C3
:105AC0002F318A4313433B7009239946C378827868
:105AD0001B021343C3180593844B81440493844BE6
